{
  "_format": "hh-sol-artifact-1",
  "contractName": "CoinFlipBchain",
  "sourceName": "contracts/coinflip.sol",
  "abi": [
    {
      "inputs": [
        {
          "internalType": "address",
          "name": "_airnodeRrp",
          "type": "address"
        }
      ],
      "stateMutability": "nonpayable",
      "type": "constructor"
    },
    {
      "anonymous": false,
      "inputs": [
        {
          "indexed": true,
          "internalType": "bytes32",
          "name": "requestId",
          "type": "bytes32"
        },
        {
          "indexed": false,
          "internalType": "uint256",
          "name": "response",
          "type": "uint256"
        }
      ],
      "name": "ReceivedUint256",
      "type": "event"
    },
    {
      "anonymous": false,
      "inputs": [
        {
          "indexed": true,
          "internalType": "bytes32",
          "name": "requestId",
          "type": "bytes32"
        }
      ],
      "name": "RequestedUint256",
      "type": "event"
    },
    {
      "inputs": [],
      "name": "airnode",
      "outputs": [
        {
          "internalType": "address",
          "name": "",
          "type": "address"
        }
      ],
      "stateMutability": "view",
      "type": "function"
    },
    {
      "inputs": [],
      "name": "airnodeRrp",
      "outputs": [
        {
          "internalType": "contract IAirnodeRrpV0",
          "name": "",
          "type": "address"
        }
      ],
      "stateMutability": "view",
      "type": "function"
    },
    {
      "inputs": [
        {
          "internalType": "address",
          "name": "",
          "type": "address"
        }
      ],
      "name": "balances",
      "outputs": [
        {
          "internalType": "uint256",
          "name": "",
          "type": "uint256"
        }
      ],
      "stateMutability": "view",
      "type": "function"
    },
    {
      "inputs": [],
      "name": "deposit",
      "outputs": [],
      "stateMutability": "payable",
      "type": "function"
    },
    {
      "inputs": [],
      "name": "endpointIdUint256",
      "outputs": [
        {
          "internalType": "bytes32",
          "name": "",
          "type": "bytes32"
        }
      ],
      "stateMutability": "view",
      "type": "function"
    },
    {
      "inputs": [
        {
          "internalType": "bytes32",
          "name": "",
          "type": "bytes32"
        }
      ],
      "name": "expectingRequestWithIdToBeFulfilled",
      "outputs": [
        {
          "internalType": "bool",
          "name": "",
          "type": "bool"
        }
      ],
      "stateMutability": "view",
      "type": "function"
    },
    {
      "inputs": [
        {
          "internalType": "bytes32",
          "name": "requestId",
          "type": "bytes32"
        },
        {
          "internalType": "bytes",
          "name": "data",
          "type": "bytes"
        }
      ],
      "name": "fulfillUint256",
      "outputs": [],
      "stateMutability": "nonpayable",
      "type": "function"
    },
    {
      "inputs": [],
      "name": "getBalance",
      "outputs": [
        {
          "internalType": "uint256",
          "name": "",
          "type": "uint256"
        }
      ],
      "stateMutability": "view",
      "type": "function"
    },
    {
      "inputs": [
        {
          "internalType": "address",
          "name": "_user",
          "type": "address"
        }
      ],
      "name": "getBalanceSender",
      "outputs": [
        {
          "internalType": "uint256",
          "name": "",
          "type": "uint256"
        }
      ],
      "stateMutability": "view",
      "type": "function"
    },
    {
      "inputs": [],
      "name": "getRandom",
      "outputs": [
        {
          "internalType": "uint256",
          "name": "",
          "type": "uint256"
        }
      ],
      "stateMutability": "view",
      "type": "function"
    },
    {
      "inputs": [],
      "name": "makeRequestUint256",
      "outputs": [],
      "stateMutability": "nonpayable",
      "type": "function"
    },
    {
      "inputs": [],
      "name": "owner",
      "outputs": [
        {
          "internalType": "address",
          "name": "",
          "type": "address"
        }
      ],
      "stateMutability": "view",
      "type": "function"
    },
    {
      "inputs": [],
      "name": "randomNumberReturn",
      "outputs": [
        {
          "internalType": "uint256",
          "name": "",
          "type": "uint256"
        }
      ],
      "stateMutability": "view",
      "type": "function"
    },
    {
      "inputs": [
        {
          "internalType": "address",
          "name": "_airnode",
          "type": "address"
        },
        {
          "internalType": "bytes32",
          "name": "_endpointIdUint256",
          "type": "bytes32"
        },
        {
          "internalType": "address",
          "name": "_sponsorWallet",
          "type": "address"
        }
      ],
      "name": "setRequestParameters",
      "outputs": [],
      "stateMutability": "nonpayable",
      "type": "function"
    },
    {
      "inputs": [],
      "name": "sponsorWallet",
      "outputs": [
        {
          "internalType": "address",
          "name": "",
          "type": "address"
        }
      ],
      "stateMutability": "view",
      "type": "function"
    },
    {
      "inputs": [
        {
          "internalType": "uint256",
          "name": "_amount",
          "type": "uint256"
        }
      ],
      "name": "withdraw",
      "outputs": [],
      "stateMutability": "nonpayable",
      "type": "function"
    }
  ],
  "bytecode": "0x60a06040523480156200001157600080fd5b50604051620015aa380380620015aa833981810160405281019062000037919062000190565b808073ffffffffffffffffffffffffffffffffffffffff1660808173ffffffffffffffffffffffffffffffffffffffff16815250508073ffffffffffffffffffffffffffffffffffffffff1663addf027c3060016040518363ffffffff1660e01b8152600401620000aa929190620001f0565b600060405180830381600087803b158015620000c557600080fd5b505af1158015620000da573d6000803e3d6000fd5b5050505050336000806101000a81548173ffffffffffffffffffffffffffffffffffffffff021916908373ffffffffffffffffffffffffffffffffffffffff160217905550506200021d565b600080fd5b600073ffffffffffffffffffffffffffffffffffffffff82169050919050565b600062000158826200012b565b9050919050565b6200016a816200014b565b81146200017657600080fd5b50565b6000815190506200018a816200015f565b92915050565b600060208284031215620001a957620001a862000126565b5b6000620001b98482850162000179565b91505092915050565b620001cd816200014b565b82525050565b60008115159050919050565b620001ea81620001d3565b82525050565b6000604082019050620002076000830185620001c2565b620002166020830184620001df565b9392505050565b608051611363620002476000396000818161059c0152818161071a015261095401526113636000f3fe6080604052600436106100f35760003560e01c806381611d081161008a578063aacc5a1711610059578063aacc5a171461032c578063bf90fb4e14610357578063d0e30db014610382578063dea12bad1461038c576100f3565b806381611d081461026e578063851244f7146102995780638da5cb5b146102d6578063a36ff4d814610301576100f3565b80632e1a7d4d116100c65780632e1a7d4d146101c85780633718d90a146101f157806371bab6661461021a5780637bdf252514610245576100f3565b806307b9fc57146100f857806312065fe0146101235780631c147a4c1461014e57806327e235e31461018b575b600080fd5b34801561010457600080fd5b5061010d6103a3565b60405161011a9190610acb565b60405180910390f35b34801561012f57600080fd5b506101386103a9565b6040516101459190610aff565b60405180910390f35b34801561015a57600080fd5b5061017560048036038101906101709190610b82565b6103b1565b6040516101829190610aff565b60405180910390f35b34801561019757600080fd5b506101b260048036038101906101ad9190610b82565b6103fa565b6040516101bf9190610aff565b60405180910390f35b3480156101d457600080fd5b506101ef60048036038101906101ea9190610bdb565b610412565b005b3480156101fd57600080fd5b5061021860048036038101906102139190610c99565b61059a565b005b34801561022657600080fd5b5061022f610718565b60405161023c9190610d58565b60405180910390f35b34801561025157600080fd5b5061026c60048036038101906102679190610d73565b61073c565b005b34801561027a57600080fd5b50610283610858565b6040516102909190610aff565b60405180910390f35b3480156102a557600080fd5b506102c060048036038101906102bb9190610dc6565b61085e565b6040516102cd9190610e0e565b60405180910390f35b3480156102e257600080fd5b506102eb61087e565b6040516102f89190610e38565b60405180910390f35b34801561030d57600080fd5b506103166108a2565b6040516103239190610e38565b60405180910390f35b34801561033857600080fd5b506103416108c8565b60405161034e9190610aff565b60405180910390f35b34801561036357600080fd5b5061036c6108d2565b6040516103799190610e38565b60405180910390f35b61038a6108f8565b005b34801561039857600080fd5b506103a1610950565b005b60025481565b600047905090565b6000600660008373ffffffffffffffffffffffffffffffffffffffff1673ffffffffffffffffffffffffffffffffffffffff168152602001908152602001600020549050919050565b60066020528060005260406000206000915090505481565b80600660003373ffffffffffffffffffffffffffffffffffffffff1673ffffffffffffffffffffffffffffffffffffffff168152602001908152602001600020541015610494576040517f08c379a000000000000000000000000000000000000000000000000000000000815260040161048b90610eb0565b60405180910390fd5b80600660003373ffffffffffffffffffffffffffffffffffffffff1673ffffffffffffffffffffffffffffffffffffffff16815260200190815260200160002060008282546104e39190610eff565b9250508190555060003373ffffffffffffffffffffffffffffffffffffffff168260405161051090610f8a565b60006040518083038185875af1925050503d806000811461054d576040519150601f19603f3d011682016040523d82523d6000602084013e610552565b606091505b5050905080610596576040517f08c379a000000000000000000000000000000000000000000000000000000000815260040161058d90610feb565b60405180910390fd5b5050565b7f000000000000000000000000000000000000000000000000000000000000000073ffffffffffffffffffffffffffffffffffffffff163373ffffffffffffffffffffffffffffffffffffffff1614610628576040517f08c379a000000000000000000000000000000000000000000000000000000000815260040161061f90611057565b60405180910390fd5b6005600084815260200190815260200160002060009054906101000a900460ff16610688576040517f08c379a000000000000000000000000000000000000000000000000000000000815260040161067f906110c3565b60405180910390fd5b60006005600085815260200190815260200160002060006101000a81548160ff021916908315150217905550600082828101906106c59190610bdb565b90506019816106d49190611112565b600481905550837f1ca47bacd454c26163f84eff4aa514e291ba9fa67ad6029e39567c122bbed30f8260405161070a9190610aff565b60405180910390a250505050565b7f000000000000000000000000000000000000000000000000000000000000000081565b60008054906101000a900473ffffffffffffffffffffffffffffffffffffffff1673ffffffffffffffffffffffffffffffffffffffff163373ffffffffffffffffffffffffffffffffffffffff16146107ca576040517f08c379a00000000000000000000000000000000000000000000000000000000081526004016107c19061118f565b60405180910390fd5b82600160006101000a81548173ffffffffffffffffffffffffffffffffffffffff021916908373ffffffffffffffffffffffffffffffffffffffff1602179055508160028190555080600360006101000a81548173ffffffffffffffffffffffffffffffffffffffff021916908373ffffffffffffffffffffffffffffffffffffffff160217905550505050565b60045481565b60056020528060005260406000206000915054906101000a900460ff1681565b60008054906101000a900473ffffffffffffffffffffffffffffffffffffffff1681565b600160009054906101000a900473ffffffffffffffffffffffffffffffffffffffff1681565b6000600454905090565b600360009054906101000a900473ffffffffffffffffffffffffffffffffffffffff1681565b34600660003373ffffffffffffffffffffffffffffffffffffffff1673ffffffffffffffffffffffffffffffffffffffff168152602001908152602001600020600082825461094791906111af565b92505081905550565b60007f000000000000000000000000000000000000000000000000000000000000000073ffffffffffffffffffffffffffffffffffffffff16636e6be03f600160009054906101000a900473ffffffffffffffffffffffffffffffffffffffff1660025430600360009054906101000a900473ffffffffffffffffffffffffffffffffffffffff1630633718d90a60e01b6040518763ffffffff1660e01b8152600401610a0296959493929190611277565b602060405180830381600087803b158015610a1c57600080fd5b505af1158015610a30573d6000803e3d6000fd5b505050506040513d601f19601f82011682018060405250810190610a549190611300565b905060016005600083815260200190815260200160002060006101000a81548160ff021916908315150217905550807fcba2da2f3c0c732a104019a3104936397dde7343964c1518ceb760052e4537b160405160405180910390a250565b6000819050919050565b610ac581610ab2565b82525050565b6000602082019050610ae06000830184610abc565b92915050565b6000819050919050565b610af981610ae6565b82525050565b6000602082019050610b146000830184610af0565b92915050565b600080fd5b600080fd5b600073ffffffffffffffffffffffffffffffffffffffff82169050919050565b6000610b4f82610b24565b9050919050565b610b5f81610b44565b8114610b6a57600080fd5b50565b600081359050610b7c81610b56565b92915050565b600060208284031215610b9857610b97610b1a565b5b6000610ba684828501610b6d565b91505092915050565b610bb881610ae6565b8114610bc357600080fd5b50565b600081359050610bd581610baf565b92915050565b600060208284031215610bf157610bf0610b1a565b5b6000610bff84828501610bc6565b91505092915050565b610c1181610ab2565b8114610c1c57600080fd5b50565b600081359050610c2e81610c08565b92915050565b600080fd5b600080fd5b600080fd5b60008083601f840112610c5957610c58610c34565b5b8235905067ffffffffffffffff811115610c7657610c75610c39565b5b602083019150836001820283011115610c9257610c91610c3e565b5b9250929050565b600080600060408486031215610cb257610cb1610b1a565b5b6000610cc086828701610c1f565b935050602084013567ffffffffffffffff811115610ce157610ce0610b1f565b5b610ced86828701610c43565b92509250509250925092565b6000819050919050565b6000610d1e610d19610d1484610b24565b610cf9565b610b24565b9050919050565b6000610d3082610d03565b9050919050565b6000610d4282610d25565b9050919050565b610d5281610d37565b82525050565b6000602082019050610d6d6000830184610d49565b92915050565b600080600060608486031215610d8c57610d8b610b1a565b5b6000610d9a86828701610b6d565b9350506020610dab86828701610c1f565b9250506040610dbc86828701610b6d565b9150509250925092565b600060208284031215610ddc57610ddb610b1a565b5b6000610dea84828501610c1f565b91505092915050565b60008115159050919050565b610e0881610df3565b82525050565b6000602082019050610e236000830184610dff565b92915050565b610e3281610b44565b82525050565b6000602082019050610e4d6000830184610e29565b92915050565b600082825260208201905092915050565b7f4e6f7420656e6f75676820657468657200000000000000000000000000000000600082015250565b6000610e9a601083610e53565b9150610ea582610e64565b602082019050919050565b60006020820190508181036000830152610ec981610e8d565b9050919050565b7f4e487b7100000000000000000000000000000000000000000000000000000000600052601160045260246000fd5b6000610f0a82610ae6565b9150610f1583610ae6565b925082821015610f2857610f27610ed0565b5b828203905092915050565b600081905092915050565b7f53656e7400000000000000000000000000000000000000000000000000000000600082015250565b6000610f74600483610f33565b9150610f7f82610f3e565b600482019050919050565b6000610f9582610f67565b9150819050919050565b7f6661696c656420746f2073656e64204554480000000000000000000000000000600082015250565b6000610fd5601283610e53565b9150610fe082610f9f565b602082019050919050565b6000602082019050818103600083015261100481610fc8565b9050919050565b7f43616c6c6572206e6f74204169726e6f64652052525000000000000000000000600082015250565b6000611041601683610e53565b915061104c8261100b565b602082019050919050565b6000602082019050818103600083015261107081611034565b9050919050565b7f52657175657374204944206e6f74206b6e6f776e000000000000000000000000600082015250565b60006110ad601483610e53565b91506110b882611077565b602082019050919050565b600060208201905081810360008301526110dc816110a0565b9050919050565b7f4e487b7100000000000000000000000000000000000000000000000000000000600052601260045260246000fd5b600061111d82610ae6565b915061112883610ae6565b925082611138576111376110e3565b5b828206905092915050565b7f53656e646572206e6f74206f776e657200000000000000000000000000000000600082015250565b6000611179601083610e53565b915061118482611143565b602082019050919050565b600060208201905081810360008301526111a88161116c565b9050919050565b60006111ba82610ae6565b91506111c583610ae6565b9250827fffffffffffffffffffffffffffffffffffffffffffffffffffffffffffffffff038211156111fa576111f9610ed0565b5b828201905092915050565b60007fffffffff0000000000000000000000000000000000000000000000000000000082169050919050565b61123a81611205565b82525050565b600082825260208201905092915050565b50565b6000611261600083611240565b915061126c82611251565b600082019050919050565b600060e08201905061128c6000830189610e29565b6112996020830188610abc565b6112a66040830187610e29565b6112b36060830186610e29565b6112c06080830185610e29565b6112cd60a0830184611231565b81810360c08301526112de81611254565b9050979650505050505050565b6000815190506112fa81610c08565b92915050565b60006020828403121561131657611315610b1a565b5b6000611324848285016112eb565b9150509291505056fea2646970667358221220c11e82658a2b4fa0e06ba54daa3c155b45036efb9456ecd858dd8d2aec6f5cb464736f6c63430008090033",
  "linkReferences": {},
  "deployedLinkReferences": {}
}