{
  "_format": "hh-sol-artifact-1",
  "contractName": "CoinFlipBchain",
  "sourceName": "contracts/coinflip.sol",
  "abi": [
    {
      "inputs": [
        {
          "internalType": "address",
          "name": "_airnodeRrp",
          "type": "address"
        }
      ],
      "stateMutability": "nonpayable",
      "type": "constructor"
    },
    {
      "anonymous": false,
      "inputs": [
        {
          "indexed": true,
          "internalType": "bytes32",
          "name": "requestId",
          "type": "bytes32"
        },
        {
          "indexed": false,
          "internalType": "uint256",
          "name": "response",
          "type": "uint256"
        }
      ],
      "name": "ReceivedUint256",
      "type": "event"
    },
    {
      "anonymous": false,
      "inputs": [
        {
          "indexed": true,
          "internalType": "bytes32",
          "name": "requestId",
          "type": "bytes32"
        }
      ],
      "name": "RequestedUint256",
      "type": "event"
    },
    {
      "inputs": [],
      "name": "airnode",
      "outputs": [
        {
          "internalType": "address",
          "name": "",
          "type": "address"
        }
      ],
      "stateMutability": "view",
      "type": "function"
    },
    {
      "inputs": [],
      "name": "airnodeRrp",
      "outputs": [
        {
          "internalType": "contract IAirnodeRrpV0",
          "name": "",
          "type": "address"
        }
      ],
      "stateMutability": "view",
      "type": "function"
    },
    {
      "inputs": [
        {
          "internalType": "address",
          "name": "",
          "type": "address"
        }
      ],
      "name": "balances",
      "outputs": [
        {
          "internalType": "uint256",
          "name": "",
          "type": "uint256"
        }
      ],
      "stateMutability": "view",
      "type": "function"
    },
    {
      "inputs": [
        {
          "internalType": "uint256",
          "name": "betAmount",
          "type": "uint256"
        }
      ],
      "name": "betOnEven",
      "outputs": [],
      "stateMutability": "payable",
      "type": "function"
    },
    {
      "inputs": [
        {
          "internalType": "uint256",
          "name": "betAmount",
          "type": "uint256"
        }
      ],
      "name": "betOnOdd",
      "outputs": [],
      "stateMutability": "payable",
      "type": "function"
    },
    {
      "inputs": [],
      "name": "deposit",
      "outputs": [],
      "stateMutability": "payable",
      "type": "function"
    },
    {
      "inputs": [],
      "name": "endpointIdUint256",
      "outputs": [
        {
          "internalType": "bytes32",
          "name": "",
          "type": "bytes32"
        }
      ],
      "stateMutability": "view",
      "type": "function"
    },
    {
      "inputs": [
        {
          "internalType": "bytes32",
          "name": "",
          "type": "bytes32"
        }
      ],
      "name": "expectingRequestWithIdToBeFulfilled",
      "outputs": [
        {
          "internalType": "bool",
          "name": "",
          "type": "bool"
        }
      ],
      "stateMutability": "view",
      "type": "function"
    },
    {
      "inputs": [
        {
          "internalType": "bytes32",
          "name": "requestId",
          "type": "bytes32"
        },
        {
          "internalType": "bytes",
          "name": "data",
          "type": "bytes"
        }
      ],
      "name": "fulfillUint256",
      "outputs": [],
      "stateMutability": "nonpayable",
      "type": "function"
    },
    {
      "inputs": [],
      "name": "getBalance",
      "outputs": [
        {
          "internalType": "uint256",
          "name": "",
          "type": "uint256"
        }
      ],
      "stateMutability": "view",
      "type": "function"
    },
    {
      "inputs": [
        {
          "internalType": "address",
          "name": "_user",
          "type": "address"
        }
      ],
      "name": "getBalanceSender",
      "outputs": [
        {
          "internalType": "uint256",
          "name": "",
          "type": "uint256"
        }
      ],
      "stateMutability": "view",
      "type": "function"
    },
    {
      "inputs": [],
      "name": "getRandom",
      "outputs": [
        {
          "internalType": "uint256",
          "name": "",
          "type": "uint256"
        }
      ],
      "stateMutability": "view",
      "type": "function"
    },
    {
      "inputs": [],
      "name": "makeRequestUint256",
      "outputs": [],
      "stateMutability": "nonpayable",
      "type": "function"
    },
    {
      "inputs": [],
      "name": "owner",
      "outputs": [
        {
          "internalType": "address",
          "name": "",
          "type": "address"
        }
      ],
      "stateMutability": "view",
      "type": "function"
    },
    {
      "inputs": [],
      "name": "randomNumberReturn",
      "outputs": [
        {
          "internalType": "uint256",
          "name": "",
          "type": "uint256"
        }
      ],
      "stateMutability": "view",
      "type": "function"
    },
    {
      "inputs": [
        {
          "internalType": "address",
          "name": "_airnode",
          "type": "address"
        },
        {
          "internalType": "bytes32",
          "name": "_endpointIdUint256",
          "type": "bytes32"
        },
        {
          "internalType": "address",
          "name": "_sponsorWallet",
          "type": "address"
        }
      ],
      "name": "setRequestParameters",
      "outputs": [],
      "stateMutability": "nonpayable",
      "type": "function"
    },
    {
      "inputs": [],
      "name": "sponsorWallet",
      "outputs": [
        {
          "internalType": "address",
          "name": "",
          "type": "address"
        }
      ],
      "stateMutability": "view",
      "type": "function"
    },
    {
      "inputs": [
        {
          "internalType": "uint256",
          "name": "_amount",
          "type": "uint256"
        }
      ],
      "name": "withdraw",
      "outputs": [],
      "stateMutability": "nonpayable",
      "type": "function"
    }
  ],
  "bytecode": "0x60a06040523480156200001157600080fd5b50604051620017c8380380620017c8833981810160405281019062000037919062000190565b808073ffffffffffffffffffffffffffffffffffffffff1660808173ffffffffffffffffffffffffffffffffffffffff16815250508073ffffffffffffffffffffffffffffffffffffffff1663addf027c3060016040518363ffffffff1660e01b8152600401620000aa929190620001f0565b600060405180830381600087803b158015620000c557600080fd5b505af1158015620000da573d6000803e3d6000fd5b5050505050336000806101000a81548173ffffffffffffffffffffffffffffffffffffffff021916908373ffffffffffffffffffffffffffffffffffffffff160217905550506200021d565b600080fd5b600073ffffffffffffffffffffffffffffffffffffffff82169050919050565b600062000158826200012b565b9050919050565b6200016a816200014b565b81146200017657600080fd5b50565b6000815190506200018a816200015f565b92915050565b600060208284031215620001a957620001a862000126565b5b6000620001b98482850162000179565b91505092915050565b620001cd816200014b565b82525050565b60008115159050919050565b620001ea81620001d3565b82525050565b6000604082019050620002076000830185620001c2565b620002166020830184620001df565b9392505050565b60805161158162000247600039600081816106d1015281816108510152610b7201526115816000f3fe6080604052600436106101095760003560e01c806380415d0911610095578063a36ff4d811610064578063a36ff4d81461034f578063aacc5a171461037a578063bf90fb4e146103a5578063d0e30db0146103d0578063dea12bad146103da57610109565b806380415d09146102a057806381611d08146102bc578063851244f7146102e75780638da5cb5b1461032457610109565b80632b21a694116100dc5780632b21a694146101de5780632e1a7d4d146101fa5780633718d90a1461022357806371bab6661461024c5780637bdf25251461027757610109565b806307b9fc571461010e57806312065fe0146101395780631c147a4c1461016457806327e235e3146101a1575b600080fd5b34801561011a57600080fd5b506101236103f1565b6040516101309190610ce9565b60405180910390f35b34801561014557600080fd5b5061014e6103f7565b60405161015b9190610d1d565b60405180910390f35b34801561017057600080fd5b5061018b60048036038101906101869190610da0565b6103ff565b6040516101989190610d1d565b60405180910390f35b3480156101ad57600080fd5b506101c860048036038101906101c39190610da0565b610448565b6040516101d59190610d1d565b60405180910390f35b6101f860048036038101906101f39190610df9565b610460565b005b34801561020657600080fd5b50610221600480360381019061021c9190610df9565b610547565b005b34801561022f57600080fd5b5061024a60048036038101906102459190610eb7565b6106cf565b005b34801561025857600080fd5b5061026161084f565b60405161026e9190610f76565b60405180910390f35b34801561028357600080fd5b5061029e60048036038101906102999190610f91565b610873565b005b6102ba60048036038101906102b59190610df9565b61098f565b005b3480156102c857600080fd5b506102d1610a76565b6040516102de9190610d1d565b60405180910390f35b3480156102f357600080fd5b5061030e60048036038101906103099190610fe4565b610a7c565b60405161031b919061102c565b60405180910390f35b34801561033057600080fd5b50610339610a9c565b6040516103469190611056565b60405180910390f35b34801561035b57600080fd5b50610364610ac0565b6040516103719190611056565b60405180910390f35b34801561038657600080fd5b5061038f610ae6565b60405161039c9190610d1d565b60405180910390f35b3480156103b157600080fd5b506103ba610af0565b6040516103c79190611056565b60405180910390f35b6103d8610b16565b005b3480156103e657600080fd5b506103ef610b6e565b005b60025481565b600047905090565b6000600660008373ffffffffffffffffffffffffffffffffffffffff1673ffffffffffffffffffffffffffffffffffffffff168152602001908152602001600020549050919050565b60066020528060005260406000206000915090505481565b600061046a610ae6565b9050600060028261047b91906110a0565b14156104e457610489610b6e565b81600660003373ffffffffffffffffffffffffffffffffffffffff1673ffffffffffffffffffffffffffffffffffffffff16815260200190815260200160002060008282546104d89190611100565b92505081905550610543565b6104ec610b6e565b81600660003373ffffffffffffffffffffffffffffffffffffffff1673ffffffffffffffffffffffffffffffffffffffff168152602001908152602001600020600082825461053b9190611134565b925050819055505b5050565b80600660003373ffffffffffffffffffffffffffffffffffffffff1673ffffffffffffffffffffffffffffffffffffffff1681526020019081526020016000205410156105c9576040517f08c379a00000000000000000000000000000000000000000000000000000000081526004016105c0906111e7565b60405180910390fd5b80600660003373ffffffffffffffffffffffffffffffffffffffff1673ffffffffffffffffffffffffffffffffffffffff16815260200190815260200160002060008282546106189190611100565b9250508190555060003373ffffffffffffffffffffffffffffffffffffffff16826040516106459061125e565b60006040518083038185875af1925050503d8060008114610682576040519150601f19603f3d011682016040523d82523d6000602084013e610687565b606091505b50509050806106cb576040517f08c379a00000000000000000000000000000000000000000000000000000000081526004016106c2906112bf565b60405180910390fd5b5050565b7f000000000000000000000000000000000000000000000000000000000000000073ffffffffffffffffffffffffffffffffffffffff163373ffffffffffffffffffffffffffffffffffffffff161461075d576040517f08c379a00000000000000000000000000000000000000000000000000000000081526004016107549061132b565b60405180910390fd5b6005600084815260200190815260200160002060009054906101000a900460ff166107bd576040517f08c379a00000000000000000000000000000000000000000000000000000000081526004016107b490611397565b60405180910390fd5b60006005600085815260200190815260200160002060006101000a81548160ff021916908315150217905550600082828101906107fa9190610df9565b9050620f42408161080b91906110a0565b600481905550837f1ca47bacd454c26163f84eff4aa514e291ba9fa67ad6029e39567c122bbed30f826040516108419190610d1d565b60405180910390a250505050565b7f000000000000000000000000000000000000000000000000000000000000000081565b60008054906101000a900473ffffffffffffffffffffffffffffffffffffffff1673ffffffffffffffffffffffffffffffffffffffff163373ffffffffffffffffffffffffffffffffffffffff1614610901576040517f08c379a00000000000000000000000000000000000000000000000000000000081526004016108f890611403565b60405180910390fd5b82600160006101000a81548173ffffffffffffffffffffffffffffffffffffffff021916908373ffffffffffffffffffffffffffffffffffffffff1602179055508160028190555080600360006101000a81548173ffffffffffffffffffffffffffffffffffffffff021916908373ffffffffffffffffffffffffffffffffffffffff160217905550505050565b6000610999610ae6565b905060006002826109aa91906110a0565b1415610a13576109b8610b6e565b81600660003373ffffffffffffffffffffffffffffffffffffffff1673ffffffffffffffffffffffffffffffffffffffff1681526020019081526020016000206000828254610a079190611134565b92505081905550610a72565b610a1b610b6e565b81600660003373ffffffffffffffffffffffffffffffffffffffff1673ffffffffffffffffffffffffffffffffffffffff1681526020019081526020016000206000828254610a6a9190611100565b925050819055505b5050565b60045481565b60056020528060005260406000206000915054906101000a900460ff1681565b60008054906101000a900473ffffffffffffffffffffffffffffffffffffffff1681565b600160009054906101000a900473ffffffffffffffffffffffffffffffffffffffff1681565b6000600454905090565b600360009054906101000a900473ffffffffffffffffffffffffffffffffffffffff1681565b34600660003373ffffffffffffffffffffffffffffffffffffffff1673ffffffffffffffffffffffffffffffffffffffff1681526020019081526020016000206000828254610b659190611134565b92505081905550565b60007f000000000000000000000000000000000000000000000000000000000000000073ffffffffffffffffffffffffffffffffffffffff16636e6be03f600160009054906101000a900473ffffffffffffffffffffffffffffffffffffffff1660025430600360009054906101000a900473ffffffffffffffffffffffffffffffffffffffff1630633718d90a60e01b6040518763ffffffff1660e01b8152600401610c2096959493929190611495565b602060405180830381600087803b158015610c3a57600080fd5b505af1158015610c4e573d6000803e3d6000fd5b505050506040513d601f19601f82011682018060405250810190610c72919061151e565b905060016005600083815260200190815260200160002060006101000a81548160ff021916908315150217905550807fcba2da2f3c0c732a104019a3104936397dde7343964c1518ceb760052e4537b160405160405180910390a250565b6000819050919050565b610ce381610cd0565b82525050565b6000602082019050610cfe6000830184610cda565b92915050565b6000819050919050565b610d1781610d04565b82525050565b6000602082019050610d326000830184610d0e565b92915050565b600080fd5b600080fd5b600073ffffffffffffffffffffffffffffffffffffffff82169050919050565b6000610d6d82610d42565b9050919050565b610d7d81610d62565b8114610d8857600080fd5b50565b600081359050610d9a81610d74565b92915050565b600060208284031215610db657610db5610d38565b5b6000610dc484828501610d8b565b91505092915050565b610dd681610d04565b8114610de157600080fd5b50565b600081359050610df381610dcd565b92915050565b600060208284031215610e0f57610e0e610d38565b5b6000610e1d84828501610de4565b91505092915050565b610e2f81610cd0565b8114610e3a57600080fd5b50565b600081359050610e4c81610e26565b92915050565b600080fd5b600080fd5b600080fd5b60008083601f840112610e7757610e76610e52565b5b8235905067ffffffffffffffff811115610e9457610e93610e57565b5b602083019150836001820283011115610eb057610eaf610e5c565b5b9250929050565b600080600060408486031215610ed057610ecf610d38565b5b6000610ede86828701610e3d565b935050602084013567ffffffffffffffff811115610eff57610efe610d3d565b5b610f0b86828701610e61565b92509250509250925092565b6000819050919050565b6000610f3c610f37610f3284610d42565b610f17565b610d42565b9050919050565b6000610f4e82610f21565b9050919050565b6000610f6082610f43565b9050919050565b610f7081610f55565b82525050565b6000602082019050610f8b6000830184610f67565b92915050565b600080600060608486031215610faa57610fa9610d38565b5b6000610fb886828701610d8b565b9350506020610fc986828701610e3d565b9250506040610fda86828701610d8b565b9150509250925092565b600060208284031215610ffa57610ff9610d38565b5b600061100884828501610e3d565b91505092915050565b60008115159050919050565b61102681611011565b82525050565b6000602082019050611041600083018461101d565b92915050565b61105081610d62565b82525050565b600060208201905061106b6000830184611047565b92915050565b7f4e487b7100000000000000000000000000000000000000000000000000000000600052601260045260246000fd5b60006110ab82610d04565b91506110b683610d04565b9250826110c6576110c5611071565b5b828206905092915050565b7f4e487b7100000000000000000000000000000000000000000000000000000000600052601160045260246000fd5b600061110b82610d04565b915061111683610d04565b925082821015611129576111286110d1565b5b828203905092915050565b600061113f82610d04565b915061114a83610d04565b9250827fffffffffffffffffffffffffffffffffffffffffffffffffffffffffffffffff0382111561117f5761117e6110d1565b5b828201905092915050565b600082825260208201905092915050565b7f4e6f7420656e6f75676820657468657200000000000000000000000000000000600082015250565b60006111d160108361118a565b91506111dc8261119b565b602082019050919050565b60006020820190508181036000830152611200816111c4565b9050919050565b600081905092915050565b7f53656e7400000000000000000000000000000000000000000000000000000000600082015250565b6000611248600483611207565b915061125382611212565b600482019050919050565b60006112698261123b565b9150819050919050565b7f6661696c656420746f2073656e64204554480000000000000000000000000000600082015250565b60006112a960128361118a565b91506112b482611273565b602082019050919050565b600060208201905081810360008301526112d88161129c565b9050919050565b7f43616c6c6572206e6f74204169726e6f64652052525000000000000000000000600082015250565b600061131560168361118a565b9150611320826112df565b602082019050919050565b6000602082019050818103600083015261134481611308565b9050919050565b7f52657175657374204944206e6f74206b6e6f776e000000000000000000000000600082015250565b600061138160148361118a565b915061138c8261134b565b602082019050919050565b600060208201905081810360008301526113b081611374565b9050919050565b7f53656e646572206e6f74206f776e657200000000000000000000000000000000600082015250565b60006113ed60108361118a565b91506113f8826113b7565b602082019050919050565b6000602082019050818103600083015261141c816113e0565b9050919050565b60007fffffffff0000000000000000000000000000000000000000000000000000000082169050919050565b61145881611423565b82525050565b600082825260208201905092915050565b50565b600061147f60008361145e565b915061148a8261146f565b600082019050919050565b600060e0820190506114aa6000830189611047565b6114b76020830188610cda565b6114c46040830187611047565b6114d16060830186611047565b6114de6080830185611047565b6114eb60a083018461144f565b81810360c08301526114fc81611472565b9050979650505050505050565b60008151905061151881610e26565b92915050565b60006020828403121561153457611533610d38565b5b600061154284828501611509565b9150509291505056fea2646970667358221220dbd3ae2aaf7a1bc39ac8ccc09415a620a71a3f616650834de41df9e0cb686baa64736f6c63430008090033",
  "linkReferences": {},
  "deployedLinkReferences": {}
}