{
  "_format": "hh-sol-artifact-1",
  "contractName": "CoinFlip",
  "sourceName": "contracts/coinflip.sol",
  "abi": [
    {
      "inputs": [],
      "stateMutability": "nonpayable",
      "type": "constructor"
    },
    {
      "inputs": [],
      "name": "balance",
      "outputs": [
        {
          "internalType": "uint256",
          "name": "",
          "type": "uint256"
        }
      ],
      "stateMutability": "view",
      "type": "function"
    },
    {
      "inputs": [],
      "name": "checkBalance",
      "outputs": [
        {
          "internalType": "uint256",
          "name": "",
          "type": "uint256"
        }
      ],
      "stateMutability": "view",
      "type": "function"
    },
    {
      "inputs": [],
      "name": "fallback",
      "outputs": [],
      "stateMutability": "payable",
      "type": "function"
    },
    {
      "inputs": [],
      "name": "freezeContract",
      "outputs": [],
      "stateMutability": "nonpayable",
      "type": "function"
    },
    {
      "inputs": [],
      "name": "isUpdateable",
      "outputs": [
        {
          "internalType": "bool",
          "name": "",
          "type": "bool"
        }
      ],
      "stateMutability": "view",
      "type": "function"
    },
    {
      "inputs": [],
      "name": "owner",
      "outputs": [
        {
          "internalType": "address payable",
          "name": "",
          "type": "address"
        }
      ],
      "stateMutability": "view",
      "type": "function"
    },
    {
      "inputs": [],
      "name": "updateContract",
      "outputs": [],
      "stateMutability": "nonpayable",
      "type": "function"
    },
    {
      "inputs": [],
      "name": "withdraw",
      "outputs": [],
      "stateMutability": "nonpayable",
      "type": "function"
    }
  ],
  "bytecode": "0x608060405234801561001057600080fd5b50336000806101000a81548173ffffffffffffffffffffffffffffffffffffffff021916908373ffffffffffffffffffffffffffffffffffffffff16021790555060006001819055506001600260006101000a81548160ff0219169083151502179055506106c5806100836000396000f3fe60806040526004361061007b5760003560e01c8063a241c0891161004e578063a241c0891461010f578063a584a9b514610126578063b69ef8a81461013d578063c71daccb146101685761007b565b80633ccfd60b1461008057806350f457b914610097578063552079dc146100c45780638da5cb5b146100ce575b600080fd5b34801561008c57600080fd5b50610095610193565b005b3480156100a357600080fd5b506100ac610322565b60405180821515815260200191505060405180910390f35b6100cc610335565b005b3480156100da57600080fd5b506100e361046c565b604051808273ffffffffffffffffffffffffffffffffffffffff16815260200191505060405180910390f35b34801561011b57600080fd5b50610124610490565b005b34801561013257600080fd5b5061013b610551565b005b34801561014957600080fd5b50610152610612565b6040518082815260200191505060405180910390f35b34801561017457600080fd5b5061017d610618565b6040518082815260200191505060405180910390f35b60008054906101000a900473ffffffffffffffffffffffffffffffffffffffff1673ffffffffffffffffffffffffffffffffffffffff163373ffffffffffffffffffffffffffffffffffffffff1614610237576040517f08c379a00000000000000000000000000000000000000000000000000000000081526004018080602001828103825260218152602001806106236021913960400191505060405180910390fd5b6000600154116102af576040517f08c379a000000000000000000000000000000000000000000000000000000000815260040180806020018281038252601e8152602001807f546865726520617265206e6f2066756e647320746f207769746864726177000081525060200191505060405180910390fd5b60008054906101000a900473ffffffffffffffffffffffffffffffffffffffff1673ffffffffffffffffffffffffffffffffffffffff166108fc6001549081150290604051600060405180830381858888f19350505050158015610317573d6000803e3d6000fd5b506000600181905550565b600260009054906101000a900460ff1681565b600260009054906101000a900460ff166103b7576040517f08c379a000000000000000000000000000000000000000000000000000000000815260040180806020018281038252601a8152602001807f436f6e7472616374206973206e6f742075706461746561626c6500000000000081525060200191505060405180910390fd5b600073ffffffffffffffffffffffffffffffffffffffff163373ffffffffffffffffffffffffffffffffffffffff16141561045a576040517f08c379a000000000000000000000000000000000000000000000000000000000815260040180806020018281038252600e8152602001807f496e76616c69642073656e64657200000000000000000000000000000000000081525060200191505060405180910390fd5b34600160008282540192505081905550565b60008054906101000a900473ffffffffffffffffffffffffffffffffffffffff1681565b60008054906101000a900473ffffffffffffffffffffffffffffffffffffffff1673ffffffffffffffffffffffffffffffffffffffff163373ffffffffffffffffffffffffffffffffffffffff1614610534576040517f08c379a000000000000000000000000000000000000000000000000000000000815260040180806020018281038252602681526020018061066a6026913960400191505060405180910390fd5b6001600260006101000a81548160ff021916908315150217905550565b60008054906101000a900473ffffffffffffffffffffffffffffffffffffffff1673ffffffffffffffffffffffffffffffffffffffff163373ffffffffffffffffffffffffffffffffffffffff16146105f5576040517f08c379a00000000000000000000000000000000000000000000000000000000081526004018080602001828103825260268152602001806106446026913960400191505060405180910390fd5b6000600260006101000a81548160ff021916908315150217905550565b60015481565b600060015490509056fe4f6e6c7920746865206f776e65722063616e2077697468647261772066756e64734f6e6c7920746865206f776e65722063616e20667265657a652074686520636f6e74726163744f6e6c7920746865206f776e65722063616e207570646174652074686520636f6e7472616374a26469706673582212201ca12ccb406eb7ede36b7f4f78bcd44c9a698ccb6df98363b41e9f7bd3edcd5b64736f6c63430007030033",
  "linkReferences": {},
  "deployedLinkReferences": {}
}