{"contracts/coinflip.sol":{"CoinFlipBchain":{"abi":[{"inputs":[{"internalType":"address","name":"_airnodeRrp","type":"address"}],"stateMutability":"nonpayable","type":"constructor"},{"anonymous":false,"inputs":[{"indexed":true,"internalType":"bytes32","name":"requestId","type":"bytes32"},{"indexed":false,"internalType":"uint256","name":"response","type":"uint256"}],"name":"ReceivedUint256","type":"event"},{"anonymous":false,"inputs":[{"indexed":true,"internalType":"bytes32","name":"requestId","type":"bytes32"}],"name":"RequestedUint256","type":"event"},{"inputs":[],"name":"airnode","outputs":[{"internalType":"address","name":"","type":"address"}],"stateMutability":"view","type":"function"},{"inputs":[],"name":"airnodeRrp","outputs":[{"internalType":"contract IAirnodeRrpV0","name":"","type":"address"}],"stateMutability":"view","type":"function"},{"inputs":[{"internalType":"address","name":"","type":"address"}],"name":"balances","outputs":[{"internalType":"uint256","name":"","type":"uint256"}],"stateMutability":"view","type":"function"},{"inputs":[{"internalType":"uint256","name":"betAmount","type":"uint256"}],"name":"betOnEven","outputs":[],"stateMutability":"payable","type":"function"},{"inputs":[{"internalType":"uint256","name":"betAmount","type":"uint256"}],"name":"betOnOdd","outputs":[],"stateMutability":"payable","type":"function"},{"inputs":[],"name":"deposit","outputs":[],"stateMutability":"payable","type":"function"},{"inputs":[],"name":"endpointIdUint256","outputs":[{"internalType":"bytes32","name":"","type":"bytes32"}],"stateMutability":"view","type":"function"},{"inputs":[{"internalType":"bytes32","name":"","type":"bytes32"}],"name":"expectingRequestWithIdToBeFulfilled","outputs":[{"internalType":"bool","name":"","type":"bool"}],"stateMutability":"view","type":"function"},{"inputs":[{"internalType":"bytes32","name":"requestId","type":"bytes32"},{"internalType":"bytes","name":"data","type":"bytes"}],"name":"fulfillUint256","outputs":[],"stateMutability":"nonpayable","type":"function"},{"inputs":[],"name":"getBalance","outputs":[{"internalType":"uint256","name":"","type":"uint256"}],"stateMutability":"view","type":"function"},{"inputs":[{"internalType":"address","name":"_user","type":"address"}],"name":"getBalanceSender","outputs":[{"internalType":"uint256","name":"","type":"uint256"}],"stateMutability":"view","type":"function"},{"inputs":[],"name":"getRandom","outputs":[{"internalType":"uint256","name":"","type":"uint256"}],"stateMutability":"view","type":"function"},{"inputs":[],"name":"makeRequestUint256","outputs":[],"stateMutability":"nonpayable","type":"function"},{"inputs":[],"name":"owner","outputs":[{"internalType":"address","name":"","type":"address"}],"stateMutability":"view","type":"function"},{"inputs":[],"name":"randomNumberReturn","outputs":[{"internalType":"uint256","name":"","type":"uint256"}],"stateMutability":"view","type":"function"},{"inputs":[{"internalType":"address","name":"_airnode","type":"address"},{"internalType":"bytes32","name":"_endpointIdUint256","type":"bytes32"},{"internalType":"address","name":"_sponsorWallet","type":"address"}],"name":"setRequestParameters","outputs":[],"stateMutability":"nonpayable","type":"function"},{"inputs":[],"name":"sponsorWallet","outputs":[{"internalType":"address","name":"","type":"address"}],"stateMutability":"view","type":"function"},{"inputs":[{"internalType":"uint256","name":"_amount","type":"uint256"}],"name":"withdraw","outputs":[],"stateMutability":"nonpayable","type":"function"}],"evm":{"bytecode":{"linkReferences":{},"object":"60a06040523480156200001157600080fd5b50604051620017c8380380620017c8833981810160405281019062000037919062000190565b808073ffffffffffffffffffffffffffffffffffffffff1660808173ffffffffffffffffffffffffffffffffffffffff16815250508073ffffffffffffffffffffffffffffffffffffffff1663addf027c3060016040518363ffffffff1660e01b8152600401620000aa929190620001f0565b600060405180830381600087803b158015620000c557600080fd5b505af1158015620000da573d6000803e3d6000fd5b5050505050336000806101000a81548173ffffffffffffffffffffffffffffffffffffffff021916908373ffffffffffffffffffffffffffffffffffffffff160217905550506200021d565b600080fd5b600073ffffffffffffffffffffffffffffffffffffffff82169050919050565b600062000158826200012b565b9050919050565b6200016a816200014b565b81146200017657600080fd5b50565b6000815190506200018a816200015f565b92915050565b600060208284031215620001a957620001a862000126565b5b6000620001b98482850162000179565b91505092915050565b620001cd816200014b565b82525050565b60008115159050919050565b620001ea81620001d3565b82525050565b6000604082019050620002076000830185620001c2565b620002166020830184620001df565b9392505050565b60805161158162000247600039600081816106d1015281816108510152610b7201526115816000f3fe6080604052600436106101095760003560e01c806380415d0911610095578063a36ff4d811610064578063a36ff4d81461034f578063aacc5a171461037a578063bf90fb4e146103a5578063d0e30db0146103d0578063dea12bad146103da57610109565b806380415d09146102a057806381611d08146102bc578063851244f7146102e75780638da5cb5b1461032457610109565b80632b21a694116100dc5780632b21a694146101de5780632e1a7d4d146101fa5780633718d90a1461022357806371bab6661461024c5780637bdf25251461027757610109565b806307b9fc571461010e57806312065fe0146101395780631c147a4c1461016457806327e235e3146101a1575b600080fd5b34801561011a57600080fd5b506101236103f1565b6040516101309190610ce9565b60405180910390f35b34801561014557600080fd5b5061014e6103f7565b60405161015b9190610d1d565b60405180910390f35b34801561017057600080fd5b5061018b60048036038101906101869190610da0565b6103ff565b6040516101989190610d1d565b60405180910390f35b3480156101ad57600080fd5b506101c860048036038101906101c39190610da0565b610448565b6040516101d59190610d1d565b60405180910390f35b6101f860048036038101906101f39190610df9565b610460565b005b34801561020657600080fd5b50610221600480360381019061021c9190610df9565b610547565b005b34801561022f57600080fd5b5061024a60048036038101906102459190610eb7565b6106cf565b005b34801561025857600080fd5b5061026161084f565b60405161026e9190610f76565b60405180910390f35b34801561028357600080fd5b5061029e60048036038101906102999190610f91565b610873565b005b6102ba60048036038101906102b59190610df9565b61098f565b005b3480156102c857600080fd5b506102d1610a76565b6040516102de9190610d1d565b60405180910390f35b3480156102f357600080fd5b5061030e60048036038101906103099190610fe4565b610a7c565b60405161031b919061102c565b60405180910390f35b34801561033057600080fd5b50610339610a9c565b6040516103469190611056565b60405180910390f35b34801561035b57600080fd5b50610364610ac0565b6040516103719190611056565b60405180910390f35b34801561038657600080fd5b5061038f610ae6565b60405161039c9190610d1d565b60405180910390f35b3480156103b157600080fd5b506103ba610af0565b6040516103c79190611056565b60405180910390f35b6103d8610b16565b005b3480156103e657600080fd5b506103ef610b6e565b005b60025481565b600047905090565b6000600660008373ffffffffffffffffffffffffffffffffffffffff1673ffffffffffffffffffffffffffffffffffffffff168152602001908152602001600020549050919050565b60066020528060005260406000206000915090505481565b600061046a610ae6565b9050600060028261047b91906110a0565b14156104e457610489610b6e565b81600660003373ffffffffffffffffffffffffffffffffffffffff1673ffffffffffffffffffffffffffffffffffffffff16815260200190815260200160002060008282546104d89190611100565b92505081905550610543565b6104ec610b6e565b81600660003373ffffffffffffffffffffffffffffffffffffffff1673ffffffffffffffffffffffffffffffffffffffff168152602001908152602001600020600082825461053b9190611134565b925050819055505b5050565b80600660003373ffffffffffffffffffffffffffffffffffffffff1673ffffffffffffffffffffffffffffffffffffffff1681526020019081526020016000205410156105c9576040517f08c379a00000000000000000000000000000000000000000000000000000000081526004016105c0906111e7565b60405180910390fd5b80600660003373ffffffffffffffffffffffffffffffffffffffff1673ffffffffffffffffffffffffffffffffffffffff16815260200190815260200160002060008282546106189190611100565b9250508190555060003373ffffffffffffffffffffffffffffffffffffffff16826040516106459061125e565b60006040518083038185875af1925050503d8060008114610682576040519150601f19603f3d011682016040523d82523d6000602084013e610687565b606091505b50509050806106cb576040517f08c379a00000000000000000000000000000000000000000000000000000000081526004016106c2906112bf565b60405180910390fd5b5050565b7f000000000000000000000000000000000000000000000000000000000000000073ffffffffffffffffffffffffffffffffffffffff163373ffffffffffffffffffffffffffffffffffffffff161461075d576040517f08c379a00000000000000000000000000000000000000000000000000000000081526004016107549061132b565b60405180910390fd5b6005600084815260200190815260200160002060009054906101000a900460ff166107bd576040517f08c379a00000000000000000000000000000000000000000000000000000000081526004016107b490611397565b60405180910390fd5b60006005600085815260200190815260200160002060006101000a81548160ff021916908315150217905550600082828101906107fa9190610df9565b9050620f42408161080b91906110a0565b600481905550837f1ca47bacd454c26163f84eff4aa514e291ba9fa67ad6029e39567c122bbed30f826040516108419190610d1d565b60405180910390a250505050565b7f000000000000000000000000000000000000000000000000000000000000000081565b60008054906101000a900473ffffffffffffffffffffffffffffffffffffffff1673ffffffffffffffffffffffffffffffffffffffff163373ffffffffffffffffffffffffffffffffffffffff1614610901576040517f08c379a00000000000000000000000000000000000000000000000000000000081526004016108f890611403565b60405180910390fd5b82600160006101000a81548173ffffffffffffffffffffffffffffffffffffffff021916908373ffffffffffffffffffffffffffffffffffffffff1602179055508160028190555080600360006101000a81548173ffffffffffffffffffffffffffffffffffffffff021916908373ffffffffffffffffffffffffffffffffffffffff160217905550505050565b6000610999610ae6565b905060006002826109aa91906110a0565b1415610a13576109b8610b6e565b81600660003373ffffffffffffffffffffffffffffffffffffffff1673ffffffffffffffffffffffffffffffffffffffff1681526020019081526020016000206000828254610a079190611134565b92505081905550610a72565b610a1b610b6e565b81600660003373ffffffffffffffffffffffffffffffffffffffff1673ffffffffffffffffffffffffffffffffffffffff1681526020019081526020016000206000828254610a6a9190611100565b925050819055505b5050565b60045481565b60056020528060005260406000206000915054906101000a900460ff1681565b60008054906101000a900473ffffffffffffffffffffffffffffffffffffffff1681565b600160009054906101000a900473ffffffffffffffffffffffffffffffffffffffff1681565b6000600454905090565b600360009054906101000a900473ffffffffffffffffffffffffffffffffffffffff1681565b34600660003373ffffffffffffffffffffffffffffffffffffffff1673ffffffffffffffffffffffffffffffffffffffff1681526020019081526020016000206000828254610b659190611134565b92505081905550565b60007f000000000000000000000000000000000000000000000000000000000000000073ffffffffffffffffffffffffffffffffffffffff16636e6be03f600160009054906101000a900473ffffffffffffffffffffffffffffffffffffffff1660025430600360009054906101000a900473ffffffffffffffffffffffffffffffffffffffff1630633718d90a60e01b6040518763ffffffff1660e01b8152600401610c2096959493929190611495565b602060405180830381600087803b158015610c3a57600080fd5b505af1158015610c4e573d6000803e3d6000fd5b505050506040513d601f19601f82011682018060405250810190610c72919061151e565b905060016005600083815260200190815260200160002060006101000a81548160ff021916908315150217905550807fcba2da2f3c0c732a104019a3104936397dde7343964c1518ceb760052e4537b160405160405180910390a250565b6000819050919050565b610ce381610cd0565b82525050565b6000602082019050610cfe6000830184610cda565b92915050565b6000819050919050565b610d1781610d04565b82525050565b6000602082019050610d326000830184610d0e565b92915050565b600080fd5b600080fd5b600073ffffffffffffffffffffffffffffffffffffffff82169050919050565b6000610d6d82610d42565b9050919050565b610d7d81610d62565b8114610d8857600080fd5b50565b600081359050610d9a81610d74565b92915050565b600060208284031215610db657610db5610d38565b5b6000610dc484828501610d8b565b91505092915050565b610dd681610d04565b8114610de157600080fd5b50565b600081359050610df381610dcd565b92915050565b600060208284031215610e0f57610e0e610d38565b5b6000610e1d84828501610de4565b91505092915050565b610e2f81610cd0565b8114610e3a57600080fd5b50565b600081359050610e4c81610e26565b92915050565b600080fd5b600080fd5b600080fd5b60008083601f840112610e7757610e76610e52565b5b8235905067ffffffffffffffff811115610e9457610e93610e57565b5b602083019150836001820283011115610eb057610eaf610e5c565b5b9250929050565b600080600060408486031215610ed057610ecf610d38565b5b6000610ede86828701610e3d565b935050602084013567ffffffffffffffff811115610eff57610efe610d3d565b5b610f0b86828701610e61565b92509250509250925092565b6000819050919050565b6000610f3c610f37610f3284610d42565b610f17565b610d42565b9050919050565b6000610f4e82610f21565b9050919050565b6000610f6082610f43565b9050919050565b610f7081610f55565b82525050565b6000602082019050610f8b6000830184610f67565b92915050565b600080600060608486031215610faa57610fa9610d38565b5b6000610fb886828701610d8b565b9350506020610fc986828701610e3d565b9250506040610fda86828701610d8b565b9150509250925092565b600060208284031215610ffa57610ff9610d38565b5b600061100884828501610e3d565b91505092915050565b60008115159050919050565b61102681611011565b82525050565b6000602082019050611041600083018461101d565b92915050565b61105081610d62565b82525050565b600060208201905061106b6000830184611047565b92915050565b7f4e487b7100000000000000000000000000000000000000000000000000000000600052601260045260246000fd5b60006110ab82610d04565b91506110b683610d04565b9250826110c6576110c5611071565b5b828206905092915050565b7f4e487b7100000000000000000000000000000000000000000000000000000000600052601160045260246000fd5b600061110b82610d04565b915061111683610d04565b925082821015611129576111286110d1565b5b828203905092915050565b600061113f82610d04565b915061114a83610d04565b9250827fffffffffffffffffffffffffffffffffffffffffffffffffffffffffffffffff0382111561117f5761117e6110d1565b5b828201905092915050565b600082825260208201905092915050565b7f4e6f7420656e6f75676820657468657200000000000000000000000000000000600082015250565b60006111d160108361118a565b91506111dc8261119b565b602082019050919050565b60006020820190508181036000830152611200816111c4565b9050919050565b600081905092915050565b7f53656e7400000000000000000000000000000000000000000000000000000000600082015250565b6000611248600483611207565b915061125382611212565b600482019050919050565b60006112698261123b565b9150819050919050565b7f6661696c656420746f2073656e64204554480000000000000000000000000000600082015250565b60006112a960128361118a565b91506112b482611273565b602082019050919050565b600060208201905081810360008301526112d88161129c565b9050919050565b7f43616c6c6572206e6f74204169726e6f64652052525000000000000000000000600082015250565b600061131560168361118a565b9150611320826112df565b602082019050919050565b6000602082019050818103600083015261134481611308565b9050919050565b7f52657175657374204944206e6f74206b6e6f776e000000000000000000000000600082015250565b600061138160148361118a565b915061138c8261134b565b602082019050919050565b600060208201905081810360008301526113b081611374565b9050919050565b7f53656e646572206e6f74206f776e657200000000000000000000000000000000600082015250565b60006113ed60108361118a565b91506113f8826113b7565b602082019050919050565b6000602082019050818103600083015261141c816113e0565b9050919050565b60007fffffffff0000000000000000000000000000000000000000000000000000000082169050919050565b61145881611423565b82525050565b600082825260208201905092915050565b50565b600061147f60008361145e565b915061148a8261146f565b600082019050919050565b600060e0820190506114aa6000830189611047565b6114b76020830188610cda565b6114c46040830187611047565b6114d16060830186611047565b6114de6080830185611047565b6114eb60a083018461144f565b81810360c08301526114fc81611472565b9050979650505050505050565b60008151905061151881610e26565b92915050565b60006020828403121561153457611533610d38565b5b600061154284828501611509565b9150509291505056fea2646970667358221220dbd3ae2aaf7a1bc39ac8ccc09415a620a71a3f616650834de41df9e0cb686baa64736f6c63430008090033","opcodes":"PUSH1 0xA0 PUSH1 0x40 MSTORE CALLVALUE DUP1 ISZERO PUSH3 0x11 JUMPI PUSH1 0x0 DUP1 REVERT JUMPDEST POP PUSH1 0x40 MLOAD PUSH3 0x17C8 CODESIZE SUB DUP1 PUSH3 0x17C8 DUP4 CODECOPY DUP2 DUP2 ADD PUSH1 0x40 MSTORE DUP2 ADD SWAP1 PUSH3 0x37 SWAP2 SWAP1 PUSH3 0x190 JUMP JUMPDEST DUP1 DUP1 PUSH20 0xFFFFFFFFFFFFFFFFFFFFFFFFFFFFFFFFFFFFFFFF AND PUSH1 0x80 DUP2 PUSH20 0xFFFFFFFFFFFFFFFFFFFFFFFFFFFFFFFFFFFFFFFF AND DUP2 MSTORE POP POP DUP1 PUSH20 0xFFFFFFFFFFFFFFFFFFFFFFFFFFFFFFFFFFFFFFFF AND PUSH4 0xADDF027C ADDRESS PUSH1 0x1 PUSH1 0x40 MLOAD DUP4 PUSH4 0xFFFFFFFF AND PUSH1 0xE0 SHL DUP2 MSTORE PUSH1 0x4 ADD PUSH3 0xAA SWAP3 SWAP2 SWAP1 PUSH3 0x1F0 JUMP JUMPDEST PUSH1 0x0 PUSH1 0x40 MLOAD DUP1 DUP4 SUB DUP2 PUSH1 0x0 DUP8 DUP1 EXTCODESIZE ISZERO DUP1 ISZERO PUSH3 0xC5 JUMPI PUSH1 0x0 DUP1 REVERT JUMPDEST POP GAS CALL ISZERO DUP1 ISZERO PUSH3 0xDA JUMPI RETURNDATASIZE PUSH1 0x0 DUP1 RETURNDATACOPY RETURNDATASIZE PUSH1 0x0 REVERT JUMPDEST POP POP POP POP POP CALLER PUSH1 0x0 DUP1 PUSH2 0x100 EXP DUP2 SLOAD DUP2 PUSH20 0xFFFFFFFFFFFFFFFFFFFFFFFFFFFFFFFFFFFFFFFF MUL NOT AND SWAP1 DUP4 PUSH20 0xFFFFFFFFFFFFFFFFFFFFFFFFFFFFFFFFFFFFFFFF AND MUL OR SWAP1 SSTORE POP POP PUSH3 0x21D JUMP JUMPDEST PUSH1 0x0 DUP1 REVERT JUMPDEST PUSH1 0x0 PUSH20 0xFFFFFFFFFFFFFFFFFFFFFFFFFFFFFFFFFFFFFFFF DUP3 AND SWAP1 POP SWAP2 SWAP1 POP JUMP JUMPDEST PUSH1 0x0 PUSH3 0x158 DUP3 PUSH3 0x12B JUMP JUMPDEST SWAP1 POP SWAP2 SWAP1 POP JUMP JUMPDEST PUSH3 0x16A DUP2 PUSH3 0x14B JUMP JUMPDEST DUP2 EQ PUSH3 0x176 JUMPI PUSH1 0x0 DUP1 REVERT JUMPDEST POP JUMP JUMPDEST PUSH1 0x0 DUP2 MLOAD SWAP1 POP PUSH3 0x18A DUP2 PUSH3 0x15F JUMP JUMPDEST SWAP3 SWAP2 POP POP JUMP JUMPDEST PUSH1 0x0 PUSH1 0x20 DUP3 DUP5 SUB SLT ISZERO PUSH3 0x1A9 JUMPI PUSH3 0x1A8 PUSH3 0x126 JUMP JUMPDEST JUMPDEST PUSH1 0x0 PUSH3 0x1B9 DUP5 DUP3 DUP6 ADD PUSH3 0x179 JUMP JUMPDEST SWAP2 POP POP SWAP3 SWAP2 POP POP JUMP JUMPDEST PUSH3 0x1CD DUP2 PUSH3 0x14B JUMP JUMPDEST DUP3 MSTORE POP POP JUMP JUMPDEST PUSH1 0x0 DUP2 ISZERO ISZERO SWAP1 POP SWAP2 SWAP1 POP JUMP JUMPDEST PUSH3 0x1EA DUP2 PUSH3 0x1D3 JUMP JUMPDEST DUP3 MSTORE POP POP JUMP JUMPDEST PUSH1 0x0 PUSH1 0x40 DUP3 ADD SWAP1 POP PUSH3 0x207 PUSH1 0x0 DUP4 ADD DUP6 PUSH3 0x1C2 JUMP JUMPDEST PUSH3 0x216 PUSH1 0x20 DUP4 ADD DUP5 PUSH3 0x1DF JUMP JUMPDEST SWAP4 SWAP3 POP POP POP JUMP JUMPDEST PUSH1 0x80 MLOAD PUSH2 0x1581 PUSH3 0x247 PUSH1 0x0 CODECOPY PUSH1 0x0 DUP2 DUP2 PUSH2 0x6D1 ADD MSTORE DUP2 DUP2 PUSH2 0x851 ADD MSTORE PUSH2 0xB72 ADD MSTORE PUSH2 0x1581 PUSH1 0x0 RETURN INVALID PUSH1 0x80 PUSH1 0x40 MSTORE PUSH1 0x4 CALLDATASIZE LT PUSH2 0x109 JUMPI PUSH1 0x0 CALLDATALOAD PUSH1 0xE0 SHR DUP1 PUSH4 0x80415D09 GT PUSH2 0x95 JUMPI DUP1 PUSH4 0xA36FF4D8 GT PUSH2 0x64 JUMPI DUP1 PUSH4 0xA36FF4D8 EQ PUSH2 0x34F JUMPI DUP1 PUSH4 0xAACC5A17 EQ PUSH2 0x37A JUMPI DUP1 PUSH4 0xBF90FB4E EQ PUSH2 0x3A5 JUMPI DUP1 PUSH4 0xD0E30DB0 EQ PUSH2 0x3D0 JUMPI DUP1 PUSH4 0xDEA12BAD EQ PUSH2 0x3DA JUMPI PUSH2 0x109 JUMP JUMPDEST DUP1 PUSH4 0x80415D09 EQ PUSH2 0x2A0 JUMPI DUP1 PUSH4 0x81611D08 EQ PUSH2 0x2BC JUMPI DUP1 PUSH4 0x851244F7 EQ PUSH2 0x2E7 JUMPI DUP1 PUSH4 0x8DA5CB5B EQ PUSH2 0x324 JUMPI PUSH2 0x109 JUMP JUMPDEST DUP1 PUSH4 0x2B21A694 GT PUSH2 0xDC JUMPI DUP1 PUSH4 0x2B21A694 EQ PUSH2 0x1DE JUMPI DUP1 PUSH4 0x2E1A7D4D EQ PUSH2 0x1FA JUMPI DUP1 PUSH4 0x3718D90A EQ PUSH2 0x223 JUMPI DUP1 PUSH4 0x71BAB666 EQ PUSH2 0x24C JUMPI DUP1 PUSH4 0x7BDF2525 EQ PUSH2 0x277 JUMPI PUSH2 0x109 JUMP JUMPDEST DUP1 PUSH4 0x7B9FC57 EQ PUSH2 0x10E JUMPI DUP1 PUSH4 0x12065FE0 EQ PUSH2 0x139 JUMPI DUP1 PUSH4 0x1C147A4C EQ PUSH2 0x164 JUMPI DUP1 PUSH4 0x27E235E3 EQ PUSH2 0x1A1 JUMPI JUMPDEST PUSH1 0x0 DUP1 REVERT JUMPDEST CALLVALUE DUP1 ISZERO PUSH2 0x11A JUMPI PUSH1 0x0 DUP1 REVERT JUMPDEST POP PUSH2 0x123 PUSH2 0x3F1 JUMP JUMPDEST PUSH1 0x40 MLOAD PUSH2 0x130 SWAP2 SWAP1 PUSH2 0xCE9 JUMP JUMPDEST PUSH1 0x40 MLOAD DUP1 SWAP2 SUB SWAP1 RETURN JUMPDEST CALLVALUE DUP1 ISZERO PUSH2 0x145 JUMPI PUSH1 0x0 DUP1 REVERT JUMPDEST POP PUSH2 0x14E PUSH2 0x3F7 JUMP JUMPDEST PUSH1 0x40 MLOAD PUSH2 0x15B SWAP2 SWAP1 PUSH2 0xD1D JUMP JUMPDEST PUSH1 0x40 MLOAD DUP1 SWAP2 SUB SWAP1 RETURN JUMPDEST CALLVALUE DUP1 ISZERO PUSH2 0x170 JUMPI PUSH1 0x0 DUP1 REVERT JUMPDEST POP PUSH2 0x18B PUSH1 0x4 DUP1 CALLDATASIZE SUB DUP2 ADD SWAP1 PUSH2 0x186 SWAP2 SWAP1 PUSH2 0xDA0 JUMP JUMPDEST PUSH2 0x3FF JUMP JUMPDEST PUSH1 0x40 MLOAD PUSH2 0x198 SWAP2 SWAP1 PUSH2 0xD1D JUMP JUMPDEST PUSH1 0x40 MLOAD DUP1 SWAP2 SUB SWAP1 RETURN JUMPDEST CALLVALUE DUP1 ISZERO PUSH2 0x1AD JUMPI PUSH1 0x0 DUP1 REVERT JUMPDEST POP PUSH2 0x1C8 PUSH1 0x4 DUP1 CALLDATASIZE SUB DUP2 ADD SWAP1 PUSH2 0x1C3 SWAP2 SWAP1 PUSH2 0xDA0 JUMP JUMPDEST PUSH2 0x448 JUMP JUMPDEST PUSH1 0x40 MLOAD PUSH2 0x1D5 SWAP2 SWAP1 PUSH2 0xD1D JUMP JUMPDEST PUSH1 0x40 MLOAD DUP1 SWAP2 SUB SWAP1 RETURN JUMPDEST PUSH2 0x1F8 PUSH1 0x4 DUP1 CALLDATASIZE SUB DUP2 ADD SWAP1 PUSH2 0x1F3 SWAP2 SWAP1 PUSH2 0xDF9 JUMP JUMPDEST PUSH2 0x460 JUMP JUMPDEST STOP JUMPDEST CALLVALUE DUP1 ISZERO PUSH2 0x206 JUMPI PUSH1 0x0 DUP1 REVERT JUMPDEST POP PUSH2 0x221 PUSH1 0x4 DUP1 CALLDATASIZE SUB DUP2 ADD SWAP1 PUSH2 0x21C SWAP2 SWAP1 PUSH2 0xDF9 JUMP JUMPDEST PUSH2 0x547 JUMP JUMPDEST STOP JUMPDEST CALLVALUE DUP1 ISZERO PUSH2 0x22F JUMPI PUSH1 0x0 DUP1 REVERT JUMPDEST POP PUSH2 0x24A PUSH1 0x4 DUP1 CALLDATASIZE SUB DUP2 ADD SWAP1 PUSH2 0x245 SWAP2 SWAP1 PUSH2 0xEB7 JUMP JUMPDEST PUSH2 0x6CF JUMP JUMPDEST STOP JUMPDEST CALLVALUE DUP1 ISZERO PUSH2 0x258 JUMPI PUSH1 0x0 DUP1 REVERT JUMPDEST POP PUSH2 0x261 PUSH2 0x84F JUMP JUMPDEST PUSH1 0x40 MLOAD PUSH2 0x26E SWAP2 SWAP1 PUSH2 0xF76 JUMP JUMPDEST PUSH1 0x40 MLOAD DUP1 SWAP2 SUB SWAP1 RETURN JUMPDEST CALLVALUE DUP1 ISZERO PUSH2 0x283 JUMPI PUSH1 0x0 DUP1 REVERT JUMPDEST POP PUSH2 0x29E PUSH1 0x4 DUP1 CALLDATASIZE SUB DUP2 ADD SWAP1 PUSH2 0x299 SWAP2 SWAP1 PUSH2 0xF91 JUMP JUMPDEST PUSH2 0x873 JUMP JUMPDEST STOP JUMPDEST PUSH2 0x2BA PUSH1 0x4 DUP1 CALLDATASIZE SUB DUP2 ADD SWAP1 PUSH2 0x2B5 SWAP2 SWAP1 PUSH2 0xDF9 JUMP JUMPDEST PUSH2 0x98F JUMP JUMPDEST STOP JUMPDEST CALLVALUE DUP1 ISZERO PUSH2 0x2C8 JUMPI PUSH1 0x0 DUP1 REVERT JUMPDEST POP PUSH2 0x2D1 PUSH2 0xA76 JUMP JUMPDEST PUSH1 0x40 MLOAD PUSH2 0x2DE SWAP2 SWAP1 PUSH2 0xD1D JUMP JUMPDEST PUSH1 0x40 MLOAD DUP1 SWAP2 SUB SWAP1 RETURN JUMPDEST CALLVALUE DUP1 ISZERO PUSH2 0x2F3 JUMPI PUSH1 0x0 DUP1 REVERT JUMPDEST POP PUSH2 0x30E PUSH1 0x4 DUP1 CALLDATASIZE SUB DUP2 ADD SWAP1 PUSH2 0x309 SWAP2 SWAP1 PUSH2 0xFE4 JUMP JUMPDEST PUSH2 0xA7C JUMP JUMPDEST PUSH1 0x40 MLOAD PUSH2 0x31B SWAP2 SWAP1 PUSH2 0x102C JUMP JUMPDEST PUSH1 0x40 MLOAD DUP1 SWAP2 SUB SWAP1 RETURN JUMPDEST CALLVALUE DUP1 ISZERO PUSH2 0x330 JUMPI PUSH1 0x0 DUP1 REVERT JUMPDEST POP PUSH2 0x339 PUSH2 0xA9C JUMP JUMPDEST PUSH1 0x40 MLOAD PUSH2 0x346 SWAP2 SWAP1 PUSH2 0x1056 JUMP JUMPDEST PUSH1 0x40 MLOAD DUP1 SWAP2 SUB SWAP1 RETURN JUMPDEST CALLVALUE DUP1 ISZERO PUSH2 0x35B JUMPI PUSH1 0x0 DUP1 REVERT JUMPDEST POP PUSH2 0x364 PUSH2 0xAC0 JUMP JUMPDEST PUSH1 0x40 MLOAD PUSH2 0x371 SWAP2 SWAP1 PUSH2 0x1056 JUMP JUMPDEST PUSH1 0x40 MLOAD DUP1 SWAP2 SUB SWAP1 RETURN JUMPDEST CALLVALUE DUP1 ISZERO PUSH2 0x386 JUMPI PUSH1 0x0 DUP1 REVERT JUMPDEST POP PUSH2 0x38F PUSH2 0xAE6 JUMP JUMPDEST PUSH1 0x40 MLOAD PUSH2 0x39C SWAP2 SWAP1 PUSH2 0xD1D JUMP JUMPDEST PUSH1 0x40 MLOAD DUP1 SWAP2 SUB SWAP1 RETURN JUMPDEST CALLVALUE DUP1 ISZERO PUSH2 0x3B1 JUMPI PUSH1 0x0 DUP1 REVERT JUMPDEST POP PUSH2 0x3BA PUSH2 0xAF0 JUMP JUMPDEST PUSH1 0x40 MLOAD PUSH2 0x3C7 SWAP2 SWAP1 PUSH2 0x1056 JUMP JUMPDEST PUSH1 0x40 MLOAD DUP1 SWAP2 SUB SWAP1 RETURN JUMPDEST PUSH2 0x3D8 PUSH2 0xB16 JUMP JUMPDEST STOP JUMPDEST CALLVALUE DUP1 ISZERO PUSH2 0x3E6 JUMPI PUSH1 0x0 DUP1 REVERT JUMPDEST POP PUSH2 0x3EF PUSH2 0xB6E JUMP JUMPDEST STOP JUMPDEST PUSH1 0x2 SLOAD DUP2 JUMP JUMPDEST PUSH1 0x0 SELFBALANCE SWAP1 POP SWAP1 JUMP JUMPDEST PUSH1 0x0 PUSH1 0x6 PUSH1 0x0 DUP4 PUSH20 0xFFFFFFFFFFFFFFFFFFFFFFFFFFFFFFFFFFFFFFFF AND PUSH20 0xFFFFFFFFFFFFFFFFFFFFFFFFFFFFFFFFFFFFFFFF AND DUP2 MSTORE PUSH1 0x20 ADD SWAP1 DUP2 MSTORE PUSH1 0x20 ADD PUSH1 0x0 KECCAK256 SLOAD SWAP1 POP SWAP2 SWAP1 POP JUMP JUMPDEST PUSH1 0x6 PUSH1 0x20 MSTORE DUP1 PUSH1 0x0 MSTORE PUSH1 0x40 PUSH1 0x0 KECCAK256 PUSH1 0x0 SWAP2 POP SWAP1 POP SLOAD DUP2 JUMP JUMPDEST PUSH1 0x0 PUSH2 0x46A PUSH2 0xAE6 JUMP JUMPDEST SWAP1 POP PUSH1 0x0 PUSH1 0x2 DUP3 PUSH2 0x47B SWAP2 SWAP1 PUSH2 0x10A0 JUMP JUMPDEST EQ ISZERO PUSH2 0x4E4 JUMPI PUSH2 0x489 PUSH2 0xB6E JUMP JUMPDEST DUP2 PUSH1 0x6 PUSH1 0x0 CALLER PUSH20 0xFFFFFFFFFFFFFFFFFFFFFFFFFFFFFFFFFFFFFFFF AND PUSH20 0xFFFFFFFFFFFFFFFFFFFFFFFFFFFFFFFFFFFFFFFF AND DUP2 MSTORE PUSH1 0x20 ADD SWAP1 DUP2 MSTORE PUSH1 0x20 ADD PUSH1 0x0 KECCAK256 PUSH1 0x0 DUP3 DUP3 SLOAD PUSH2 0x4D8 SWAP2 SWAP1 PUSH2 0x1100 JUMP JUMPDEST SWAP3 POP POP DUP2 SWAP1 SSTORE POP PUSH2 0x543 JUMP JUMPDEST PUSH2 0x4EC PUSH2 0xB6E JUMP JUMPDEST DUP2 PUSH1 0x6 PUSH1 0x0 CALLER PUSH20 0xFFFFFFFFFFFFFFFFFFFFFFFFFFFFFFFFFFFFFFFF AND PUSH20 0xFFFFFFFFFFFFFFFFFFFFFFFFFFFFFFFFFFFFFFFF AND DUP2 MSTORE PUSH1 0x20 ADD SWAP1 DUP2 MSTORE PUSH1 0x20 ADD PUSH1 0x0 KECCAK256 PUSH1 0x0 DUP3 DUP3 SLOAD PUSH2 0x53B SWAP2 SWAP1 PUSH2 0x1134 JUMP JUMPDEST SWAP3 POP POP DUP2 SWAP1 SSTORE POP JUMPDEST POP POP JUMP JUMPDEST DUP1 PUSH1 0x6 PUSH1 0x0 CALLER PUSH20 0xFFFFFFFFFFFFFFFFFFFFFFFFFFFFFFFFFFFFFFFF AND PUSH20 0xFFFFFFFFFFFFFFFFFFFFFFFFFFFFFFFFFFFFFFFF AND DUP2 MSTORE PUSH1 0x20 ADD SWAP1 DUP2 MSTORE PUSH1 0x20 ADD PUSH1 0x0 KECCAK256 SLOAD LT ISZERO PUSH2 0x5C9 JUMPI PUSH1 0x40 MLOAD PUSH32 0x8C379A000000000000000000000000000000000000000000000000000000000 DUP2 MSTORE PUSH1 0x4 ADD PUSH2 0x5C0 SWAP1 PUSH2 0x11E7 JUMP JUMPDEST PUSH1 0x40 MLOAD DUP1 SWAP2 SUB SWAP1 REVERT JUMPDEST DUP1 PUSH1 0x6 PUSH1 0x0 CALLER PUSH20 0xFFFFFFFFFFFFFFFFFFFFFFFFFFFFFFFFFFFFFFFF AND PUSH20 0xFFFFFFFFFFFFFFFFFFFFFFFFFFFFFFFFFFFFFFFF AND DUP2 MSTORE PUSH1 0x20 ADD SWAP1 DUP2 MSTORE PUSH1 0x20 ADD PUSH1 0x0 KECCAK256 PUSH1 0x0 DUP3 DUP3 SLOAD PUSH2 0x618 SWAP2 SWAP1 PUSH2 0x1100 JUMP JUMPDEST SWAP3 POP POP DUP2 SWAP1 SSTORE POP PUSH1 0x0 CALLER PUSH20 0xFFFFFFFFFFFFFFFFFFFFFFFFFFFFFFFFFFFFFFFF AND DUP3 PUSH1 0x40 MLOAD PUSH2 0x645 SWAP1 PUSH2 0x125E JUMP JUMPDEST PUSH1 0x0 PUSH1 0x40 MLOAD DUP1 DUP4 SUB DUP2 DUP6 DUP8 GAS CALL SWAP3 POP POP POP RETURNDATASIZE DUP1 PUSH1 0x0 DUP2 EQ PUSH2 0x682 JUMPI PUSH1 0x40 MLOAD SWAP2 POP PUSH1 0x1F NOT PUSH1 0x3F RETURNDATASIZE ADD AND DUP3 ADD PUSH1 0x40 MSTORE RETURNDATASIZE DUP3 MSTORE RETURNDATASIZE PUSH1 0x0 PUSH1 0x20 DUP5 ADD RETURNDATACOPY PUSH2 0x687 JUMP JUMPDEST PUSH1 0x60 SWAP2 POP JUMPDEST POP POP SWAP1 POP DUP1 PUSH2 0x6CB JUMPI PUSH1 0x40 MLOAD PUSH32 0x8C379A000000000000000000000000000000000000000000000000000000000 DUP2 MSTORE PUSH1 0x4 ADD PUSH2 0x6C2 SWAP1 PUSH2 0x12BF JUMP JUMPDEST PUSH1 0x40 MLOAD DUP1 SWAP2 SUB SWAP1 REVERT JUMPDEST POP POP JUMP JUMPDEST PUSH32 0x0 PUSH20 0xFFFFFFFFFFFFFFFFFFFFFFFFFFFFFFFFFFFFFFFF AND CALLER PUSH20 0xFFFFFFFFFFFFFFFFFFFFFFFFFFFFFFFFFFFFFFFF AND EQ PUSH2 0x75D JUMPI PUSH1 0x40 MLOAD PUSH32 0x8C379A000000000000000000000000000000000000000000000000000000000 DUP2 MSTORE PUSH1 0x4 ADD PUSH2 0x754 SWAP1 PUSH2 0x132B JUMP JUMPDEST PUSH1 0x40 MLOAD DUP1 SWAP2 SUB SWAP1 REVERT JUMPDEST PUSH1 0x5 PUSH1 0x0 DUP5 DUP2 MSTORE PUSH1 0x20 ADD SWAP1 DUP2 MSTORE PUSH1 0x20 ADD PUSH1 0x0 KECCAK256 PUSH1 0x0 SWAP1 SLOAD SWAP1 PUSH2 0x100 EXP SWAP1 DIV PUSH1 0xFF AND PUSH2 0x7BD JUMPI PUSH1 0x40 MLOAD PUSH32 0x8C379A000000000000000000000000000000000000000000000000000000000 DUP2 MSTORE PUSH1 0x4 ADD PUSH2 0x7B4 SWAP1 PUSH2 0x1397 JUMP JUMPDEST PUSH1 0x40 MLOAD DUP1 SWAP2 SUB SWAP1 REVERT JUMPDEST PUSH1 0x0 PUSH1 0x5 PUSH1 0x0 DUP6 DUP2 MSTORE PUSH1 0x20 ADD SWAP1 DUP2 MSTORE PUSH1 0x20 ADD PUSH1 0x0 KECCAK256 PUSH1 0x0 PUSH2 0x100 EXP DUP2 SLOAD DUP2 PUSH1 0xFF MUL NOT AND SWAP1 DUP4 ISZERO ISZERO MUL OR SWAP1 SSTORE POP PUSH1 0x0 DUP3 DUP3 DUP2 ADD SWAP1 PUSH2 0x7FA SWAP2 SWAP1 PUSH2 0xDF9 JUMP JUMPDEST SWAP1 POP PUSH3 0xF4240 DUP2 PUSH2 0x80B SWAP2 SWAP1 PUSH2 0x10A0 JUMP JUMPDEST PUSH1 0x4 DUP2 SWAP1 SSTORE POP DUP4 PUSH32 0x1CA47BACD454C26163F84EFF4AA514E291BA9FA67AD6029E39567C122BBED30F DUP3 PUSH1 0x40 MLOAD PUSH2 0x841 SWAP2 SWAP1 PUSH2 0xD1D JUMP JUMPDEST PUSH1 0x40 MLOAD DUP1 SWAP2 SUB SWAP1 LOG2 POP POP POP POP JUMP JUMPDEST PUSH32 0x0 DUP2 JUMP JUMPDEST PUSH1 0x0 DUP1 SLOAD SWAP1 PUSH2 0x100 EXP SWAP1 DIV PUSH20 0xFFFFFFFFFFFFFFFFFFFFFFFFFFFFFFFFFFFFFFFF AND PUSH20 0xFFFFFFFFFFFFFFFFFFFFFFFFFFFFFFFFFFFFFFFF AND CALLER PUSH20 0xFFFFFFFFFFFFFFFFFFFFFFFFFFFFFFFFFFFFFFFF AND EQ PUSH2 0x901 JUMPI PUSH1 0x40 MLOAD PUSH32 0x8C379A000000000000000000000000000000000000000000000000000000000 DUP2 MSTORE PUSH1 0x4 ADD PUSH2 0x8F8 SWAP1 PUSH2 0x1403 JUMP JUMPDEST PUSH1 0x40 MLOAD DUP1 SWAP2 SUB SWAP1 REVERT JUMPDEST DUP3 PUSH1 0x1 PUSH1 0x0 PUSH2 0x100 EXP DUP2 SLOAD DUP2 PUSH20 0xFFFFFFFFFFFFFFFFFFFFFFFFFFFFFFFFFFFFFFFF MUL NOT AND SWAP1 DUP4 PUSH20 0xFFFFFFFFFFFFFFFFFFFFFFFFFFFFFFFFFFFFFFFF AND MUL OR SWAP1 SSTORE POP DUP2 PUSH1 0x2 DUP2 SWAP1 SSTORE POP DUP1 PUSH1 0x3 PUSH1 0x0 PUSH2 0x100 EXP DUP2 SLOAD DUP2 PUSH20 0xFFFFFFFFFFFFFFFFFFFFFFFFFFFFFFFFFFFFFFFF MUL NOT AND SWAP1 DUP4 PUSH20 0xFFFFFFFFFFFFFFFFFFFFFFFFFFFFFFFFFFFFFFFF AND MUL OR SWAP1 SSTORE POP POP POP POP JUMP JUMPDEST PUSH1 0x0 PUSH2 0x999 PUSH2 0xAE6 JUMP JUMPDEST SWAP1 POP PUSH1 0x0 PUSH1 0x2 DUP3 PUSH2 0x9AA SWAP2 SWAP1 PUSH2 0x10A0 JUMP JUMPDEST EQ ISZERO PUSH2 0xA13 JUMPI PUSH2 0x9B8 PUSH2 0xB6E JUMP JUMPDEST DUP2 PUSH1 0x6 PUSH1 0x0 CALLER PUSH20 0xFFFFFFFFFFFFFFFFFFFFFFFFFFFFFFFFFFFFFFFF AND PUSH20 0xFFFFFFFFFFFFFFFFFFFFFFFFFFFFFFFFFFFFFFFF AND DUP2 MSTORE PUSH1 0x20 ADD SWAP1 DUP2 MSTORE PUSH1 0x20 ADD PUSH1 0x0 KECCAK256 PUSH1 0x0 DUP3 DUP3 SLOAD PUSH2 0xA07 SWAP2 SWAP1 PUSH2 0x1134 JUMP JUMPDEST SWAP3 POP POP DUP2 SWAP1 SSTORE POP PUSH2 0xA72 JUMP JUMPDEST PUSH2 0xA1B PUSH2 0xB6E JUMP JUMPDEST DUP2 PUSH1 0x6 PUSH1 0x0 CALLER PUSH20 0xFFFFFFFFFFFFFFFFFFFFFFFFFFFFFFFFFFFFFFFF AND PUSH20 0xFFFFFFFFFFFFFFFFFFFFFFFFFFFFFFFFFFFFFFFF AND DUP2 MSTORE PUSH1 0x20 ADD SWAP1 DUP2 MSTORE PUSH1 0x20 ADD PUSH1 0x0 KECCAK256 PUSH1 0x0 DUP3 DUP3 SLOAD PUSH2 0xA6A SWAP2 SWAP1 PUSH2 0x1100 JUMP JUMPDEST SWAP3 POP POP DUP2 SWAP1 SSTORE POP JUMPDEST POP POP JUMP JUMPDEST PUSH1 0x4 SLOAD DUP2 JUMP JUMPDEST PUSH1 0x5 PUSH1 0x20 MSTORE DUP1 PUSH1 0x0 MSTORE PUSH1 0x40 PUSH1 0x0 KECCAK256 PUSH1 0x0 SWAP2 POP SLOAD SWAP1 PUSH2 0x100 EXP SWAP1 DIV PUSH1 0xFF AND DUP2 JUMP JUMPDEST PUSH1 0x0 DUP1 SLOAD SWAP1 PUSH2 0x100 EXP SWAP1 DIV PUSH20 0xFFFFFFFFFFFFFFFFFFFFFFFFFFFFFFFFFFFFFFFF AND DUP2 JUMP JUMPDEST PUSH1 0x1 PUSH1 0x0 SWAP1 SLOAD SWAP1 PUSH2 0x100 EXP SWAP1 DIV PUSH20 0xFFFFFFFFFFFFFFFFFFFFFFFFFFFFFFFFFFFFFFFF AND DUP2 JUMP JUMPDEST PUSH1 0x0 PUSH1 0x4 SLOAD SWAP1 POP SWAP1 JUMP JUMPDEST PUSH1 0x3 PUSH1 0x0 SWAP1 SLOAD SWAP1 PUSH2 0x100 EXP SWAP1 DIV PUSH20 0xFFFFFFFFFFFFFFFFFFFFFFFFFFFFFFFFFFFFFFFF AND DUP2 JUMP JUMPDEST CALLVALUE PUSH1 0x6 PUSH1 0x0 CALLER PUSH20 0xFFFFFFFFFFFFFFFFFFFFFFFFFFFFFFFFFFFFFFFF AND PUSH20 0xFFFFFFFFFFFFFFFFFFFFFFFFFFFFFFFFFFFFFFFF AND DUP2 MSTORE PUSH1 0x20 ADD SWAP1 DUP2 MSTORE PUSH1 0x20 ADD PUSH1 0x0 KECCAK256 PUSH1 0x0 DUP3 DUP3 SLOAD PUSH2 0xB65 SWAP2 SWAP1 PUSH2 0x1134 JUMP JUMPDEST SWAP3 POP POP DUP2 SWAP1 SSTORE POP JUMP JUMPDEST PUSH1 0x0 PUSH32 0x0 PUSH20 0xFFFFFFFFFFFFFFFFFFFFFFFFFFFFFFFFFFFFFFFF AND PUSH4 0x6E6BE03F PUSH1 0x1 PUSH1 0x0 SWAP1 SLOAD SWAP1 PUSH2 0x100 EXP SWAP1 DIV PUSH20 0xFFFFFFFFFFFFFFFFFFFFFFFFFFFFFFFFFFFFFFFF AND PUSH1 0x2 SLOAD ADDRESS PUSH1 0x3 PUSH1 0x0 SWAP1 SLOAD SWAP1 PUSH2 0x100 EXP SWAP1 DIV PUSH20 0xFFFFFFFFFFFFFFFFFFFFFFFFFFFFFFFFFFFFFFFF AND ADDRESS PUSH4 0x3718D90A PUSH1 0xE0 SHL PUSH1 0x40 MLOAD DUP8 PUSH4 0xFFFFFFFF AND PUSH1 0xE0 SHL DUP2 MSTORE PUSH1 0x4 ADD PUSH2 0xC20 SWAP7 SWAP6 SWAP5 SWAP4 SWAP3 SWAP2 SWAP1 PUSH2 0x1495 JUMP JUMPDEST PUSH1 0x20 PUSH1 0x40 MLOAD DUP1 DUP4 SUB DUP2 PUSH1 0x0 DUP8 DUP1 EXTCODESIZE ISZERO DUP1 ISZERO PUSH2 0xC3A JUMPI PUSH1 0x0 DUP1 REVERT JUMPDEST POP GAS CALL ISZERO DUP1 ISZERO PUSH2 0xC4E JUMPI RETURNDATASIZE PUSH1 0x0 DUP1 RETURNDATACOPY RETURNDATASIZE PUSH1 0x0 REVERT JUMPDEST POP POP POP POP PUSH1 0x40 MLOAD RETURNDATASIZE PUSH1 0x1F NOT PUSH1 0x1F DUP3 ADD AND DUP3 ADD DUP1 PUSH1 0x40 MSTORE POP DUP2 ADD SWAP1 PUSH2 0xC72 SWAP2 SWAP1 PUSH2 0x151E JUMP JUMPDEST SWAP1 POP PUSH1 0x1 PUSH1 0x5 PUSH1 0x0 DUP4 DUP2 MSTORE PUSH1 0x20 ADD SWAP1 DUP2 MSTORE PUSH1 0x20 ADD PUSH1 0x0 KECCAK256 PUSH1 0x0 PUSH2 0x100 EXP DUP2 SLOAD DUP2 PUSH1 0xFF MUL NOT AND SWAP1 DUP4 ISZERO ISZERO MUL OR SWAP1 SSTORE POP DUP1 PUSH32 0xCBA2DA2F3C0C732A104019A3104936397DDE7343964C1518CEB760052E4537B1 PUSH1 0x40 MLOAD PUSH1 0x40 MLOAD DUP1 SWAP2 SUB SWAP1 LOG2 POP JUMP JUMPDEST PUSH1 0x0 DUP2 SWAP1 POP SWAP2 SWAP1 POP JUMP JUMPDEST PUSH2 0xCE3 DUP2 PUSH2 0xCD0 JUMP JUMPDEST DUP3 MSTORE POP POP JUMP JUMPDEST PUSH1 0x0 PUSH1 0x20 DUP3 ADD SWAP1 POP PUSH2 0xCFE PUSH1 0x0 DUP4 ADD DUP5 PUSH2 0xCDA JUMP JUMPDEST SWAP3 SWAP2 POP POP JUMP JUMPDEST PUSH1 0x0 DUP2 SWAP1 POP SWAP2 SWAP1 POP JUMP JUMPDEST PUSH2 0xD17 DUP2 PUSH2 0xD04 JUMP JUMPDEST DUP3 MSTORE POP POP JUMP JUMPDEST PUSH1 0x0 PUSH1 0x20 DUP3 ADD SWAP1 POP PUSH2 0xD32 PUSH1 0x0 DUP4 ADD DUP5 PUSH2 0xD0E JUMP JUMPDEST SWAP3 SWAP2 POP POP JUMP JUMPDEST PUSH1 0x0 DUP1 REVERT JUMPDEST PUSH1 0x0 DUP1 REVERT JUMPDEST PUSH1 0x0 PUSH20 0xFFFFFFFFFFFFFFFFFFFFFFFFFFFFFFFFFFFFFFFF DUP3 AND SWAP1 POP SWAP2 SWAP1 POP JUMP JUMPDEST PUSH1 0x0 PUSH2 0xD6D DUP3 PUSH2 0xD42 JUMP JUMPDEST SWAP1 POP SWAP2 SWAP1 POP JUMP JUMPDEST PUSH2 0xD7D DUP2 PUSH2 0xD62 JUMP JUMPDEST DUP2 EQ PUSH2 0xD88 JUMPI PUSH1 0x0 DUP1 REVERT JUMPDEST POP JUMP JUMPDEST PUSH1 0x0 DUP2 CALLDATALOAD SWAP1 POP PUSH2 0xD9A DUP2 PUSH2 0xD74 JUMP JUMPDEST SWAP3 SWAP2 POP POP JUMP JUMPDEST PUSH1 0x0 PUSH1 0x20 DUP3 DUP5 SUB SLT ISZERO PUSH2 0xDB6 JUMPI PUSH2 0xDB5 PUSH2 0xD38 JUMP JUMPDEST JUMPDEST PUSH1 0x0 PUSH2 0xDC4 DUP5 DUP3 DUP6 ADD PUSH2 0xD8B JUMP JUMPDEST SWAP2 POP POP SWAP3 SWAP2 POP POP JUMP JUMPDEST PUSH2 0xDD6 DUP2 PUSH2 0xD04 JUMP JUMPDEST DUP2 EQ PUSH2 0xDE1 JUMPI PUSH1 0x0 DUP1 REVERT JUMPDEST POP JUMP JUMPDEST PUSH1 0x0 DUP2 CALLDATALOAD SWAP1 POP PUSH2 0xDF3 DUP2 PUSH2 0xDCD JUMP JUMPDEST SWAP3 SWAP2 POP POP JUMP JUMPDEST PUSH1 0x0 PUSH1 0x20 DUP3 DUP5 SUB SLT ISZERO PUSH2 0xE0F JUMPI PUSH2 0xE0E PUSH2 0xD38 JUMP JUMPDEST JUMPDEST PUSH1 0x0 PUSH2 0xE1D DUP5 DUP3 DUP6 ADD PUSH2 0xDE4 JUMP JUMPDEST SWAP2 POP POP SWAP3 SWAP2 POP POP JUMP JUMPDEST PUSH2 0xE2F DUP2 PUSH2 0xCD0 JUMP JUMPDEST DUP2 EQ PUSH2 0xE3A JUMPI PUSH1 0x0 DUP1 REVERT JUMPDEST POP JUMP JUMPDEST PUSH1 0x0 DUP2 CALLDATALOAD SWAP1 POP PUSH2 0xE4C DUP2 PUSH2 0xE26 JUMP JUMPDEST SWAP3 SWAP2 POP POP JUMP JUMPDEST PUSH1 0x0 DUP1 REVERT JUMPDEST PUSH1 0x0 DUP1 REVERT JUMPDEST PUSH1 0x0 DUP1 REVERT JUMPDEST PUSH1 0x0 DUP1 DUP4 PUSH1 0x1F DUP5 ADD SLT PUSH2 0xE77 JUMPI PUSH2 0xE76 PUSH2 0xE52 JUMP JUMPDEST JUMPDEST DUP3 CALLDATALOAD SWAP1 POP PUSH8 0xFFFFFFFFFFFFFFFF DUP2 GT ISZERO PUSH2 0xE94 JUMPI PUSH2 0xE93 PUSH2 0xE57 JUMP JUMPDEST JUMPDEST PUSH1 0x20 DUP4 ADD SWAP2 POP DUP4 PUSH1 0x1 DUP3 MUL DUP4 ADD GT ISZERO PUSH2 0xEB0 JUMPI PUSH2 0xEAF PUSH2 0xE5C JUMP JUMPDEST JUMPDEST SWAP3 POP SWAP3 SWAP1 POP JUMP JUMPDEST PUSH1 0x0 DUP1 PUSH1 0x0 PUSH1 0x40 DUP5 DUP7 SUB SLT ISZERO PUSH2 0xED0 JUMPI PUSH2 0xECF PUSH2 0xD38 JUMP JUMPDEST JUMPDEST PUSH1 0x0 PUSH2 0xEDE DUP7 DUP3 DUP8 ADD PUSH2 0xE3D JUMP JUMPDEST SWAP4 POP POP PUSH1 0x20 DUP5 ADD CALLDATALOAD PUSH8 0xFFFFFFFFFFFFFFFF DUP2 GT ISZERO PUSH2 0xEFF JUMPI PUSH2 0xEFE PUSH2 0xD3D JUMP JUMPDEST JUMPDEST PUSH2 0xF0B DUP7 DUP3 DUP8 ADD PUSH2 0xE61 JUMP JUMPDEST SWAP3 POP SWAP3 POP POP SWAP3 POP SWAP3 POP SWAP3 JUMP JUMPDEST PUSH1 0x0 DUP2 SWAP1 POP SWAP2 SWAP1 POP JUMP JUMPDEST PUSH1 0x0 PUSH2 0xF3C PUSH2 0xF37 PUSH2 0xF32 DUP5 PUSH2 0xD42 JUMP JUMPDEST PUSH2 0xF17 JUMP JUMPDEST PUSH2 0xD42 JUMP JUMPDEST SWAP1 POP SWAP2 SWAP1 POP JUMP JUMPDEST PUSH1 0x0 PUSH2 0xF4E DUP3 PUSH2 0xF21 JUMP JUMPDEST SWAP1 POP SWAP2 SWAP1 POP JUMP JUMPDEST PUSH1 0x0 PUSH2 0xF60 DUP3 PUSH2 0xF43 JUMP JUMPDEST SWAP1 POP SWAP2 SWAP1 POP JUMP JUMPDEST PUSH2 0xF70 DUP2 PUSH2 0xF55 JUMP JUMPDEST DUP3 MSTORE POP POP JUMP JUMPDEST PUSH1 0x0 PUSH1 0x20 DUP3 ADD SWAP1 POP PUSH2 0xF8B PUSH1 0x0 DUP4 ADD DUP5 PUSH2 0xF67 JUMP JUMPDEST SWAP3 SWAP2 POP POP JUMP JUMPDEST PUSH1 0x0 DUP1 PUSH1 0x0 PUSH1 0x60 DUP5 DUP7 SUB SLT ISZERO PUSH2 0xFAA JUMPI PUSH2 0xFA9 PUSH2 0xD38 JUMP JUMPDEST JUMPDEST PUSH1 0x0 PUSH2 0xFB8 DUP7 DUP3 DUP8 ADD PUSH2 0xD8B JUMP JUMPDEST SWAP4 POP POP PUSH1 0x20 PUSH2 0xFC9 DUP7 DUP3 DUP8 ADD PUSH2 0xE3D JUMP JUMPDEST SWAP3 POP POP PUSH1 0x40 PUSH2 0xFDA DUP7 DUP3 DUP8 ADD PUSH2 0xD8B JUMP JUMPDEST SWAP2 POP POP SWAP3 POP SWAP3 POP SWAP3 JUMP JUMPDEST PUSH1 0x0 PUSH1 0x20 DUP3 DUP5 SUB SLT ISZERO PUSH2 0xFFA JUMPI PUSH2 0xFF9 PUSH2 0xD38 JUMP JUMPDEST JUMPDEST PUSH1 0x0 PUSH2 0x1008 DUP5 DUP3 DUP6 ADD PUSH2 0xE3D JUMP JUMPDEST SWAP2 POP POP SWAP3 SWAP2 POP POP JUMP JUMPDEST PUSH1 0x0 DUP2 ISZERO ISZERO SWAP1 POP SWAP2 SWAP1 POP JUMP JUMPDEST PUSH2 0x1026 DUP2 PUSH2 0x1011 JUMP JUMPDEST DUP3 MSTORE POP POP JUMP JUMPDEST PUSH1 0x0 PUSH1 0x20 DUP3 ADD SWAP1 POP PUSH2 0x1041 PUSH1 0x0 DUP4 ADD DUP5 PUSH2 0x101D JUMP JUMPDEST SWAP3 SWAP2 POP POP JUMP JUMPDEST PUSH2 0x1050 DUP2 PUSH2 0xD62 JUMP JUMPDEST DUP3 MSTORE POP POP JUMP JUMPDEST PUSH1 0x0 PUSH1 0x20 DUP3 ADD SWAP1 POP PUSH2 0x106B PUSH1 0x0 DUP4 ADD DUP5 PUSH2 0x1047 JUMP JUMPDEST SWAP3 SWAP2 POP POP JUMP JUMPDEST PUSH32 0x4E487B7100000000000000000000000000000000000000000000000000000000 PUSH1 0x0 MSTORE PUSH1 0x12 PUSH1 0x4 MSTORE PUSH1 0x24 PUSH1 0x0 REVERT JUMPDEST PUSH1 0x0 PUSH2 0x10AB DUP3 PUSH2 0xD04 JUMP JUMPDEST SWAP2 POP PUSH2 0x10B6 DUP4 PUSH2 0xD04 JUMP JUMPDEST SWAP3 POP DUP3 PUSH2 0x10C6 JUMPI PUSH2 0x10C5 PUSH2 0x1071 JUMP JUMPDEST JUMPDEST DUP3 DUP3 MOD SWAP1 POP SWAP3 SWAP2 POP POP JUMP JUMPDEST PUSH32 0x4E487B7100000000000000000000000000000000000000000000000000000000 PUSH1 0x0 MSTORE PUSH1 0x11 PUSH1 0x4 MSTORE PUSH1 0x24 PUSH1 0x0 REVERT JUMPDEST PUSH1 0x0 PUSH2 0x110B DUP3 PUSH2 0xD04 JUMP JUMPDEST SWAP2 POP PUSH2 0x1116 DUP4 PUSH2 0xD04 JUMP JUMPDEST SWAP3 POP DUP3 DUP3 LT ISZERO PUSH2 0x1129 JUMPI PUSH2 0x1128 PUSH2 0x10D1 JUMP JUMPDEST JUMPDEST DUP3 DUP3 SUB SWAP1 POP SWAP3 SWAP2 POP POP JUMP JUMPDEST PUSH1 0x0 PUSH2 0x113F DUP3 PUSH2 0xD04 JUMP JUMPDEST SWAP2 POP PUSH2 0x114A DUP4 PUSH2 0xD04 JUMP JUMPDEST SWAP3 POP DUP3 PUSH32 0xFFFFFFFFFFFFFFFFFFFFFFFFFFFFFFFFFFFFFFFFFFFFFFFFFFFFFFFFFFFFFFFF SUB DUP3 GT ISZERO PUSH2 0x117F JUMPI PUSH2 0x117E PUSH2 0x10D1 JUMP JUMPDEST JUMPDEST DUP3 DUP3 ADD SWAP1 POP SWAP3 SWAP2 POP POP JUMP JUMPDEST PUSH1 0x0 DUP3 DUP3 MSTORE PUSH1 0x20 DUP3 ADD SWAP1 POP SWAP3 SWAP2 POP POP JUMP JUMPDEST PUSH32 0x4E6F7420656E6F75676820657468657200000000000000000000000000000000 PUSH1 0x0 DUP3 ADD MSTORE POP JUMP JUMPDEST PUSH1 0x0 PUSH2 0x11D1 PUSH1 0x10 DUP4 PUSH2 0x118A JUMP JUMPDEST SWAP2 POP PUSH2 0x11DC DUP3 PUSH2 0x119B JUMP JUMPDEST PUSH1 0x20 DUP3 ADD SWAP1 POP SWAP2 SWAP1 POP JUMP JUMPDEST PUSH1 0x0 PUSH1 0x20 DUP3 ADD SWAP1 POP DUP2 DUP2 SUB PUSH1 0x0 DUP4 ADD MSTORE PUSH2 0x1200 DUP2 PUSH2 0x11C4 JUMP JUMPDEST SWAP1 POP SWAP2 SWAP1 POP JUMP JUMPDEST PUSH1 0x0 DUP2 SWAP1 POP SWAP3 SWAP2 POP POP JUMP JUMPDEST PUSH32 0x53656E7400000000000000000000000000000000000000000000000000000000 PUSH1 0x0 DUP3 ADD MSTORE POP JUMP JUMPDEST PUSH1 0x0 PUSH2 0x1248 PUSH1 0x4 DUP4 PUSH2 0x1207 JUMP JUMPDEST SWAP2 POP PUSH2 0x1253 DUP3 PUSH2 0x1212 JUMP JUMPDEST PUSH1 0x4 DUP3 ADD SWAP1 POP SWAP2 SWAP1 POP JUMP JUMPDEST PUSH1 0x0 PUSH2 0x1269 DUP3 PUSH2 0x123B JUMP JUMPDEST SWAP2 POP DUP2 SWAP1 POP SWAP2 SWAP1 POP JUMP JUMPDEST PUSH32 0x6661696C656420746F2073656E64204554480000000000000000000000000000 PUSH1 0x0 DUP3 ADD MSTORE POP JUMP JUMPDEST PUSH1 0x0 PUSH2 0x12A9 PUSH1 0x12 DUP4 PUSH2 0x118A JUMP JUMPDEST SWAP2 POP PUSH2 0x12B4 DUP3 PUSH2 0x1273 JUMP JUMPDEST PUSH1 0x20 DUP3 ADD SWAP1 POP SWAP2 SWAP1 POP JUMP JUMPDEST PUSH1 0x0 PUSH1 0x20 DUP3 ADD SWAP1 POP DUP2 DUP2 SUB PUSH1 0x0 DUP4 ADD MSTORE PUSH2 0x12D8 DUP2 PUSH2 0x129C JUMP JUMPDEST SWAP1 POP SWAP2 SWAP1 POP JUMP JUMPDEST PUSH32 0x43616C6C6572206E6F74204169726E6F64652052525000000000000000000000 PUSH1 0x0 DUP3 ADD MSTORE POP JUMP JUMPDEST PUSH1 0x0 PUSH2 0x1315 PUSH1 0x16 DUP4 PUSH2 0x118A JUMP JUMPDEST SWAP2 POP PUSH2 0x1320 DUP3 PUSH2 0x12DF JUMP JUMPDEST PUSH1 0x20 DUP3 ADD SWAP1 POP SWAP2 SWAP1 POP JUMP JUMPDEST PUSH1 0x0 PUSH1 0x20 DUP3 ADD SWAP1 POP DUP2 DUP2 SUB PUSH1 0x0 DUP4 ADD MSTORE PUSH2 0x1344 DUP2 PUSH2 0x1308 JUMP JUMPDEST SWAP1 POP SWAP2 SWAP1 POP JUMP JUMPDEST PUSH32 0x52657175657374204944206E6F74206B6E6F776E000000000000000000000000 PUSH1 0x0 DUP3 ADD MSTORE POP JUMP JUMPDEST PUSH1 0x0 PUSH2 0x1381 PUSH1 0x14 DUP4 PUSH2 0x118A JUMP JUMPDEST SWAP2 POP PUSH2 0x138C DUP3 PUSH2 0x134B JUMP JUMPDEST PUSH1 0x20 DUP3 ADD SWAP1 POP SWAP2 SWAP1 POP JUMP JUMPDEST PUSH1 0x0 PUSH1 0x20 DUP3 ADD SWAP1 POP DUP2 DUP2 SUB PUSH1 0x0 DUP4 ADD MSTORE PUSH2 0x13B0 DUP2 PUSH2 0x1374 JUMP JUMPDEST SWAP1 POP SWAP2 SWAP1 POP JUMP JUMPDEST PUSH32 0x53656E646572206E6F74206F776E657200000000000000000000000000000000 PUSH1 0x0 DUP3 ADD MSTORE POP JUMP JUMPDEST PUSH1 0x0 PUSH2 0x13ED PUSH1 0x10 DUP4 PUSH2 0x118A JUMP JUMPDEST SWAP2 POP PUSH2 0x13F8 DUP3 PUSH2 0x13B7 JUMP JUMPDEST PUSH1 0x20 DUP3 ADD SWAP1 POP SWAP2 SWAP1 POP JUMP JUMPDEST PUSH1 0x0 PUSH1 0x20 DUP3 ADD SWAP1 POP DUP2 DUP2 SUB PUSH1 0x0 DUP4 ADD MSTORE PUSH2 0x141C DUP2 PUSH2 0x13E0 JUMP JUMPDEST SWAP1 POP SWAP2 SWAP1 POP JUMP JUMPDEST PUSH1 0x0 PUSH32 0xFFFFFFFF00000000000000000000000000000000000000000000000000000000 DUP3 AND SWAP1 POP SWAP2 SWAP1 POP JUMP JUMPDEST PUSH2 0x1458 DUP2 PUSH2 0x1423 JUMP JUMPDEST DUP3 MSTORE POP POP JUMP JUMPDEST PUSH1 0x0 DUP3 DUP3 MSTORE PUSH1 0x20 DUP3 ADD SWAP1 POP SWAP3 SWAP2 POP POP JUMP JUMPDEST POP JUMP JUMPDEST PUSH1 0x0 PUSH2 0x147F PUSH1 0x0 DUP4 PUSH2 0x145E JUMP JUMPDEST SWAP2 POP PUSH2 0x148A DUP3 PUSH2 0x146F JUMP JUMPDEST PUSH1 0x0 DUP3 ADD SWAP1 POP SWAP2 SWAP1 POP JUMP JUMPDEST PUSH1 0x0 PUSH1 0xE0 DUP3 ADD SWAP1 POP PUSH2 0x14AA PUSH1 0x0 DUP4 ADD DUP10 PUSH2 0x1047 JUMP JUMPDEST PUSH2 0x14B7 PUSH1 0x20 DUP4 ADD DUP9 PUSH2 0xCDA JUMP JUMPDEST PUSH2 0x14C4 PUSH1 0x40 DUP4 ADD DUP8 PUSH2 0x1047 JUMP JUMPDEST PUSH2 0x14D1 PUSH1 0x60 DUP4 ADD DUP7 PUSH2 0x1047 JUMP JUMPDEST PUSH2 0x14DE PUSH1 0x80 DUP4 ADD DUP6 PUSH2 0x1047 JUMP JUMPDEST PUSH2 0x14EB PUSH1 0xA0 DUP4 ADD DUP5 PUSH2 0x144F JUMP JUMPDEST DUP2 DUP2 SUB PUSH1 0xC0 DUP4 ADD MSTORE PUSH2 0x14FC DUP2 PUSH2 0x1472 JUMP JUMPDEST SWAP1 POP SWAP8 SWAP7 POP POP POP POP POP POP POP JUMP JUMPDEST PUSH1 0x0 DUP2 MLOAD SWAP1 POP PUSH2 0x1518 DUP2 PUSH2 0xE26 JUMP JUMPDEST SWAP3 SWAP2 POP POP JUMP JUMPDEST PUSH1 0x0 PUSH1 0x20 DUP3 DUP5 SUB SLT ISZERO PUSH2 0x1534 JUMPI PUSH2 0x1533 PUSH2 0xD38 JUMP JUMPDEST JUMPDEST PUSH1 0x0 PUSH2 0x1542 DUP5 DUP3 DUP6 ADD PUSH2 0x1509 JUMP JUMPDEST SWAP2 POP POP SWAP3 SWAP2 POP POP JUMP INVALID LOG2 PUSH5 0x6970667358 0x22 SLT KECCAK256 0xDB 0xD3 0xAE 0x2A 0xAF PUSH27 0x1BC39AC8CCC09415A620A71A3F616650834DE41DF9E0CB686BAA64 PUSH20 0x6F6C634300080900330000000000000000000000 "},"methodIdentifiers":{"airnode()":"a36ff4d8","airnodeRrp()":"71bab666","balances(address)":"27e235e3","betOnEven(uint256)":"80415d09","betOnOdd(uint256)":"2b21a694","deposit()":"d0e30db0","endpointIdUint256()":"07b9fc57","expectingRequestWithIdToBeFulfilled(bytes32)":"851244f7","fulfillUint256(bytes32,bytes)":"3718d90a","getBalance()":"12065fe0","getBalanceSender(address)":"1c147a4c","getRandom()":"aacc5a17","makeRequestUint256()":"dea12bad","owner()":"8da5cb5b","randomNumberReturn()":"81611d08","setRequestParameters(address,bytes32,address)":"7bdf2525","sponsorWallet()":"bf90fb4e","withdraw(uint256)":"2e1a7d4d"}}}}}